{
  "contractName": "RFT",
  "abi": [
    {
      "inputs": [
        {
          "internalType": "address",
          "name": "_router",
          "type": "address"
        }
      ],
      "stateMutability": "nonpayable",
      "type": "constructor"
    },
    {
      "anonymous": false,
      "inputs": [
        {
          "indexed": true,
          "internalType": "address",
          "name": "owner",
          "type": "address"
        },
        {
          "indexed": true,
          "internalType": "address",
          "name": "spender",
          "type": "address"
        },
        {
          "indexed": false,
          "internalType": "uint256",
          "name": "value",
          "type": "uint256"
        }
      ],
      "name": "Approval",
      "type": "event"
    },
    {
      "anonymous": false,
      "inputs": [
        {
          "indexed": false,
          "internalType": "address",
          "name": "adr",
          "type": "address"
        }
      ],
      "name": "Authorized",
      "type": "event"
    },
    {
      "anonymous": false,
      "inputs": [
        {
          "indexed": false,
          "internalType": "uint256",
          "name": "amountBNB",
          "type": "uint256"
        },
        {
          "indexed": false,
          "internalType": "uint256",
          "name": "amountBOG",
          "type": "uint256"
        }
      ],
      "name": "AutoLiquify",
      "type": "event"
    },
    {
      "anonymous": false,
      "inputs": [
        {
          "indexed": false,
          "internalType": "address",
          "name": "owner",
          "type": "address"
        }
      ],
      "name": "OwnershipTransferred",
      "type": "event"
    },
    {
      "anonymous": false,
      "inputs": [],
      "name": "Paused",
      "type": "event"
    },
    {
      "anonymous": false,
      "inputs": [
        {
          "indexed": true,
          "internalType": "address",
          "name": "from",
          "type": "address"
        },
        {
          "indexed": true,
          "internalType": "address",
          "name": "to",
          "type": "address"
        },
        {
          "indexed": false,
          "internalType": "uint256",
          "name": "value",
          "type": "uint256"
        }
      ],
      "name": "Transfer",
      "type": "event"
    },
    {
      "anonymous": false,
      "inputs": [
        {
          "indexed": false,
          "internalType": "address",
          "name": "adr",
          "type": "address"
        }
      ],
      "name": "Unauthorized",
      "type": "event"
    },
    {
      "anonymous": false,
      "inputs": [],
      "name": "Unpaused",
      "type": "event"
    },
    {
      "inputs": [],
      "name": "_maxTxAmount",
      "outputs": [
        {
          "internalType": "uint256",
          "name": "",
          "type": "uint256"
        }
      ],
      "stateMutability": "view",
      "type": "function",
      "constant": true
    },
    {
      "inputs": [
        {
          "internalType": "address",
          "name": "_account",
          "type": "address"
        }
      ],
      "name": "authorize",
      "outputs": [],
      "stateMutability": "nonpayable",
      "type": "function"
    },
    {
      "inputs": [],
      "name": "autoLiquidityFee",
      "outputs": [
        {
          "internalType": "uint256",
          "name": "",
          "type": "uint256"
        }
      ],
      "stateMutability": "view",
      "type": "function",
      "constant": true
    },
    {
      "inputs": [],
      "name": "autoLiquidityReceiver",
      "outputs": [
        {
          "internalType": "address",
          "name": "",
          "type": "address"
        }
      ],
      "stateMutability": "view",
      "type": "function",
      "constant": true
    },
    {
      "inputs": [],
      "name": "feeDenominator",
      "outputs": [
        {
          "internalType": "uint256",
          "name": "",
          "type": "uint256"
        }
      ],
      "stateMutability": "view",
      "type": "function",
      "constant": true
    },
    {
      "inputs": [
        {
          "internalType": "address",
          "name": "",
          "type": "address"
        }
      ],
      "name": "hasFee",
      "outputs": [
        {
          "internalType": "bool",
          "name": "",
          "type": "bool"
        }
      ],
      "stateMutability": "view",
      "type": "function",
      "constant": true
    },
    {
      "inputs": [
        {
          "internalType": "address",
          "name": "_account",
          "type": "address"
        }
      ],
      "name": "isAuthorized",
      "outputs": [
        {
          "internalType": "bool",
          "name": "",
          "type": "bool"
        }
      ],
      "stateMutability": "view",
      "type": "function",
      "constant": true
    },
    {
      "inputs": [
        {
          "internalType": "address",
          "name": "",
          "type": "address"
        }
      ],
      "name": "isExempt",
      "outputs": [
        {
          "internalType": "bool",
          "name": "",
          "type": "bool"
        }
      ],
      "stateMutability": "view",
      "type": "function",
      "constant": true
    },
    {
      "inputs": [],
      "name": "isPaused",
      "outputs": [
        {
          "internalType": "bool",
          "name": "",
          "type": "bool"
        }
      ],
      "stateMutability": "view",
      "type": "function",
      "constant": true
    },
    {
      "inputs": [],
      "name": "liquifyAmount",
      "outputs": [
        {
          "internalType": "uint256",
          "name": "",
          "type": "uint256"
        }
      ],
      "stateMutability": "view",
      "type": "function",
      "constant": true
    },
    {
      "inputs": [],
      "name": "liquifyEnabled",
      "outputs": [
        {
          "internalType": "bool",
          "name": "",
          "type": "bool"
        }
      ],
      "stateMutability": "view",
      "type": "function",
      "constant": true
    },
    {
      "inputs": [],
      "name": "liquifyPair",
      "outputs": [
        {
          "internalType": "address",
          "name": "",
          "type": "address"
        }
      ],
      "stateMutability": "view",
      "type": "function",
      "constant": true
    },
    {
      "inputs": [],
      "name": "pause",
      "outputs": [],
      "stateMutability": "nonpayable",
      "type": "function"
    },
    {
      "inputs": [],
      "name": "paused",
      "outputs": [
        {
          "internalType": "bool",
          "name": "",
          "type": "bool"
        }
      ],
      "stateMutability": "view",
      "type": "function",
      "constant": true
    },
    {
      "inputs": [
        {
          "internalType": "address",
          "name": "_account",
          "type": "address"
        }
      ],
      "name": "revoke",
      "outputs": [],
      "stateMutability": "nonpayable",
      "type": "function"
    },
    {
      "inputs": [],
      "name": "router",
      "outputs": [
        {
          "internalType": "contract IRouter",
          "name": "",
          "type": "address"
        }
      ],
      "stateMutability": "view",
      "type": "function",
      "constant": true
    },
    {
      "inputs": [],
      "name": "stakingFee",
      "outputs": [
        {
          "internalType": "uint256",
          "name": "",
          "type": "uint256"
        }
      ],
      "stateMutability": "view",
      "type": "function",
      "constant": true
    },
    {
      "inputs": [],
      "name": "stakingFeeReceiver",
      "outputs": [
        {
          "internalType": "address",
          "name": "",
          "type": "address"
        }
      ],
      "stateMutability": "view",
      "type": "function",
      "constant": true
    },
    {
      "inputs": [
        {
          "internalType": "address payable",
          "name": "adr",
          "type": "address"
        }
      ],
      "name": "transferOwnership",
      "outputs": [],
      "stateMutability": "nonpayable",
      "type": "function"
    },
    {
      "inputs": [],
      "name": "unpause",
      "outputs": [],
      "stateMutability": "nonpayable",
      "type": "function"
    },
    {
      "stateMutability": "payable",
      "type": "receive",
      "payable": true
    },
    {
      "inputs": [],
      "name": "totalSupply",
      "outputs": [
        {
          "internalType": "uint256",
          "name": "",
          "type": "uint256"
        }
      ],
      "stateMutability": "view",
      "type": "function",
      "constant": true
    },
    {
      "inputs": [],
      "name": "decimals",
      "outputs": [
        {
          "internalType": "uint8",
          "name": "",
          "type": "uint8"
        }
      ],
      "stateMutability": "pure",
      "type": "function",
      "constant": true
    },
    {
      "inputs": [],
      "name": "symbol",
      "outputs": [
        {
          "internalType": "string",
          "name": "",
          "type": "string"
        }
      ],
      "stateMutability": "pure",
      "type": "function",
      "constant": true
    },
    {
      "inputs": [],
      "name": "name",
      "outputs": [
        {
          "internalType": "string",
          "name": "",
          "type": "string"
        }
      ],
      "stateMutability": "pure",
      "type": "function",
      "constant": true
    },
    {
      "inputs": [],
      "name": "getOwner",
      "outputs": [
        {
          "internalType": "address",
          "name": "",
          "type": "address"
        }
      ],
      "stateMutability": "view",
      "type": "function",
      "constant": true
    },
    {
      "inputs": [
        {
          "internalType": "address",
          "name": "account",
          "type": "address"
        }
      ],
      "name": "balanceOf",
      "outputs": [
        {
          "internalType": "uint256",
          "name": "",
          "type": "uint256"
        }
      ],
      "stateMutability": "view",
      "type": "function",
      "constant": true
    },
    {
      "inputs": [
        {
          "internalType": "address",
          "name": "holder",
          "type": "address"
        },
        {
          "internalType": "address",
          "name": "spender",
          "type": "address"
        }
      ],
      "name": "allowance",
      "outputs": [
        {
          "internalType": "uint256",
          "name": "",
          "type": "uint256"
        }
      ],
      "stateMutability": "view",
      "type": "function",
      "constant": true
    },
    {
      "inputs": [
        {
          "internalType": "address",
          "name": "spender",
          "type": "address"
        },
        {
          "internalType": "uint256",
          "name": "amount",
          "type": "uint256"
        }
      ],
      "name": "approve",
      "outputs": [
        {
          "internalType": "bool",
          "name": "",
          "type": "bool"
        }
      ],
      "stateMutability": "nonpayable",
      "type": "function"
    },
    {
      "inputs": [
        {
          "internalType": "address",
          "name": "spender",
          "type": "address"
        }
      ],
      "name": "approveMax",
      "outputs": [
        {
          "internalType": "bool",
          "name": "",
          "type": "bool"
        }
      ],
      "stateMutability": "nonpayable",
      "type": "function"
    },
    {
      "inputs": [
        {
          "internalType": "address",
          "name": "recipient",
          "type": "address"
        },
        {
          "internalType": "uint256",
          "name": "amount",
          "type": "uint256"
        }
      ],
      "name": "transfer",
      "outputs": [
        {
          "internalType": "bool",
          "name": "",
          "type": "bool"
        }
      ],
      "stateMutability": "nonpayable",
      "type": "function"
    },
    {
      "inputs": [
        {
          "internalType": "address",
          "name": "sender",
          "type": "address"
        },
        {
          "internalType": "address",
          "name": "recipient",
          "type": "address"
        },
        {
          "internalType": "uint256",
          "name": "amount",
          "type": "uint256"
        }
      ],
      "name": "transferFrom",
      "outputs": [
        {
          "internalType": "bool",
          "name": "",
          "type": "bool"
        }
      ],
      "stateMutability": "nonpayable",
      "type": "function"
    },
    {
      "inputs": [
        {
          "internalType": "uint256",
          "name": "amount",
          "type": "uint256"
        }
      ],
      "name": "setTxLimit",
      "outputs": [],
      "stateMutability": "nonpayable",
      "type": "function"
    },
    {
      "inputs": [
        {
          "internalType": "bool",
          "name": "enabled",
          "type": "bool"
        },
        {
          "internalType": "uint256",
          "name": "amount",
          "type": "uint256"
        }
      ],
      "name": "setLiquify",
      "outputs": [],
      "stateMutability": "nonpayable",
      "type": "function"
    },
    {
      "inputs": [
        {
          "internalType": "address",
          "name": "_router",
          "type": "address"
        },
        {
          "internalType": "address",
          "name": "_liquifyPair",
          "type": "address"
        }
      ],
      "name": "migrateAutoLiquidityDEX",
      "outputs": [],
      "stateMutability": "nonpayable",
      "type": "function"
    },
    {
      "inputs": [
        {
          "internalType": "address",
          "name": "adr",
          "type": "address"
        },
        {
          "internalType": "bool",
          "name": "state",
          "type": "bool"
        }
      ],
      "name": "setHasFee",
      "outputs": [],
      "stateMutability": "nonpayable",
      "type": "function"
    },
    {
      "inputs": [
        {
          "internalType": "address",
          "name": "adr",
          "type": "address"
        },
        {
          "internalType": "bool",
          "name": "state",
          "type": "bool"
        }
      ],
      "name": "setIsExempt",
      "outputs": [],
      "stateMutability": "nonpayable",
      "type": "function"
    },
    {
      "inputs": [
        {
          "internalType": "uint256",
          "name": "_liquidityFee",
          "type": "uint256"
        },
        {
          "internalType": "uint256",
          "name": "_stakingFee",
          "type": "uint256"
        },
        {
          "internalType": "uint256",
          "name": "_feeDenominator",
          "type": "uint256"
        }
      ],
      "name": "setFees",
      "outputs": [],
      "stateMutability": "nonpayable",
      "type": "function"
    },
    {
      "inputs": [
        {
          "internalType": "address",
          "name": "_autoLiquidityReceiver",
          "type": "address"
        },
        {
          "internalType": "address",
          "name": "_stakingFeeReceiver",
          "type": "address"
        }
      ],
      "name": "setFeeReceivers",
      "outputs": [],
      "stateMutability": "nonpayable",
      "type": "function"
    },
    {
      "inputs": [],
      "name": "rescueBNB",
      "outputs": [],
      "stateMutability": "nonpayable",
      "type": "function"
    }
  ],
  "bytecode": "0x60806040526012600a620000149190620008c5565b62e4e1c062000024919062000916565b6003556012600a620000379190620008c5565b61c35062000046919062000916565b60045560026009556003600a556064600b556001601260006101000a81548160ff0219169083151502179055506012600a620000839190620008c5565b60fa62000091919062000916565b601355348015620000a157600080fd5b5060405162004604380380620046048339818101604052810190620000c79190620009e1565b33806000806101000a81548173ffffffffffffffffffffffffffffffffffffffff021916908373ffffffffffffffffffffffffffffffffffffffff16021790555060018060008060009054906101000a900473ffffffffffffffffffffffffffffffffffffffff1673ffffffffffffffffffffffffffffffffffffffff1673ffffffffffffffffffffffffffffffffffffffff16815260200190815260200160002060006101000a81548160ff021916908315150217905550506000600260006101000a81548160ff02191690831515021790555080600e60006101000a81548173ffffffffffffffffffffffffffffffffffffffff021916908373ffffffffffffffffffffffffffffffffffffffff160217905550600e60009054906101000a900473ffffffffffffffffffffffffffffffffffffffff1673ffffffffffffffffffffffffffffffffffffffff1663ad5c46486040518163ffffffff1660e01b8152600401602060405180830381865afa1580156200024b573d6000803e3d6000fd5b505050506040513d601f19601f82011682018060405250810190620002719190620009e1565b600f60006101000a81548173ffffffffffffffffffffffffffffffffffffffff021916908373ffffffffffffffffffffffffffffffffffffffff160217905550600e60009054906101000a900473ffffffffffffffffffffffffffffffffffffffff1673ffffffffffffffffffffffffffffffffffffffff1663c45a01556040518163ffffffff1660e01b8152600401602060405180830381865afa1580156200031f573d6000803e3d6000fd5b505050506040513d601f19601f82011682018060405250810190620003459190620009e1565b73ffffffffffffffffffffffffffffffffffffffff1663c9c65396600f60009054906101000a900473ffffffffffffffffffffffffffffffffffffffff16306040518363ffffffff1660e01b8152600401620003a392919062000a24565b6020604051808303816000875af1158015620003c3573d6000803e3d6000fd5b505050506040513d601f19601f82011682018060405250810190620003e99190620009e1565b601060006101000a81548173ffffffffffffffffffffffffffffffffffffffff021916908373ffffffffffffffffffffffffffffffffffffffff1602179055507fffffffffffffffffffffffffffffffffffffffffffffffffffffffffffffffff600660003073ffffffffffffffffffffffffffffffffffffffff1673ffffffffffffffffffffffffffffffffffffffff16815260200190815260200160002060008373ffffffffffffffffffffffffffffffffffffffff1673ffffffffffffffffffffffffffffffffffffffff16815260200190815260200160002081905550600160076000601060009054906101000a900473ffffffffffffffffffffffffffffffffffffffff1673ffffffffffffffffffffffffffffffffffffffff1673ffffffffffffffffffffffffffffffffffffffff16815260200190815260200160002060006101000a81548160ff0219169083151502179055506001600860003373ffffffffffffffffffffffffffffffffffffffff1673ffffffffffffffffffffffffffffffffffffffff16815260200190815260200160002060006101000a81548160ff0219169083151502179055506001600860003073ffffffffffffffffffffffffffffffffffffffff1673ffffffffffffffffffffffffffffffffffffffff16815260200190815260200160002060006101000a81548160ff021916908315150217905550600354600560003373ffffffffffffffffffffffffffffffffffffffff1673ffffffffffffffffffffffffffffffffffffffff168152602001908152602001600020819055503373ffffffffffffffffffffffffffffffffffffffff16600073ffffffffffffffffffffffffffffffffffffffff167fddf252ad1be2c89b69c2b068fc378daa952ba7f163c4a11628f55a4df523b3ef6003546040516200069c919062000a62565b60405180910390a360003373ffffffffffffffffffffffffffffffffffffffff1647604051620006cc9062000ab4565b60006040518083038185875af1925050503d80600081146200070b576040519150601f19603f3d011682016040523d82523d6000602084013e62000710565b606091505b50509050801562000722575062000724565b505b5062000acb565b7f4e487b7100000000000000000000000000000000000000000000000000000000600052601160045260246000fd5b60008160011c9050919050565b6000808291508390505b6001851115620007b9578086048111156200079157620007906200072b565b5b6001851615620007a15780820291505b8081029050620007b1856200075a565b945062000771565b94509492505050565b600082620007d45760019050620008a7565b81620007e45760009050620008a7565b8160018114620007fd576002811462000808576200083e565b6001915050620008a7565b60ff8411156200081d576200081c6200072b565b5b8360020a9150848211156200083757620008366200072b565b5b50620008a7565b5060208310610133831016604e8410600b8410161715620008785782820a9050838111156200087257620008716200072b565b5b620008a7565b62000887848484600162000767565b92509050818404811115620008a157620008a06200072b565b5b81810290505b9392505050565b6000819050919050565b600060ff82169050919050565b6000620008d282620008ae565b9150620008df83620008b8565b92506200090e7fffffffffffffffffffffffffffffffffffffffffffffffffffffffffffffffff8484620007c2565b905092915050565b60006200092382620008ae565b91506200093083620008ae565b9250817fffffffffffffffffffffffffffffffffffffffffffffffffffffffffffffffff04831182151516156200096c576200096b6200072b565b5b828202905092915050565b600080fd5b600073ffffffffffffffffffffffffffffffffffffffff82169050919050565b6000620009a9826200097c565b9050919050565b620009bb816200099c565b8114620009c757600080fd5b50565b600081519050620009db81620009b0565b92915050565b600060208284031215620009fa57620009f962000977565b5b600062000a0a84828501620009ca565b91505092915050565b62000a1e816200099c565b82525050565b600060408201905062000a3b600083018562000a13565b62000a4a602083018462000a13565b9392505050565b62000a5c81620008ae565b82525050565b600060208201905062000a79600083018462000a51565b92915050565b600081905092915050565b50565b600062000a9c60008362000a7f565b915062000aa98262000a8a565b600082019050919050565b600062000ac18262000a8d565b9150819050919050565b613b298062000adb6000396000f3fe6080604052600436106102345760003560e01c806395d89b411161012e578063c5cb3be5116100ab578063eff988431161006f578063eff9884314610902578063f25f136c1461092d578063f2fde38b14610944578063f887ea401461096d578063fe9fbb8014610998576102f1565b8063c5cb3be51461081b578063ca33e64c14610846578063cec10c1114610871578063dd62ed3e1461089a578063ed5792d7146108d7576102f1565b8063b5790bbd116100f2578063b5790bbd1461074a578063b60996cd14610773578063b6a5d7de1461079c578063b9b03590146107c5578063bdc7bcb6146107f0576102f1565b806395d89b4114610651578063a4b45c001461067c578063a9059cbb146106a5578063ad5dff73146106e2578063b187bd261461071f576102f1565b80635c85974f116101bc57806374a8f1031161018057806374a8f103146105925780637d1db4a5146105bb578063837fdbf2146105e65780638456cb591461060f578063893d20e814610626576102f1565b80635c85974f146104995780635c975abb146104c25780636c0d72f1146104ed57806370a08231146105185780637497e29614610555576102f1565b806318160ddd1161020357806318160ddd146103b257806323b872dd146103dd578063313ce5671461041a5780633f4ba83a14610445578063571ac8b01461045c576102f1565b806306fdde03146102f657806308ebddeb14610321578063095ea7b31461034a578063180b0d7e14610387576102f1565b366102f157600f60009054906101000a900473ffffffffffffffffffffffffffffffffffffffff1673ffffffffffffffffffffffffffffffffffffffff163373ffffffffffffffffffffffffffffffffffffffff1614806102e25750600e60009054906101000a900473ffffffffffffffffffffffffffffffffffffffff1673ffffffffffffffffffffffffffffffffffffffff163373ffffffffffffffffffffffffffffffffffffffff16145b6102ef576102ee612b4a565b5b005b600080fd5b34801561030257600080fd5b5061030b6109d5565b6040516103189190612c12565b60405180910390f35b34801561032d57600080fd5b5061034860048036038101906103439190612ca7565b610a12565b005b34801561035657600080fd5b50610371600480360381019061036c9190612d45565b610aa6565b60405161037e9190612d94565b60405180910390f35b34801561039357600080fd5b5061039c610b98565b6040516103a99190612dbe565b60405180910390f35b3480156103be57600080fd5b506103c7610b9e565b6040516103d49190612dbe565b60405180910390f35b3480156103e957600080fd5b5061040460048036038101906103ff9190612dd9565b610ba8565b6040516104119190612d94565b60405180910390f35b34801561042657600080fd5b5061042f610bbe565b60405161043c9190612e48565b60405180910390f35b34801561045157600080fd5b5061045a610bc7565b005b34801561046857600080fd5b50610483600480360381019061047e9190612e63565b610cb6565b6040516104909190612d94565b60405180910390f35b3480156104a557600080fd5b506104c060048036038101906104bb9190612e90565b610ce9565b005b3480156104ce57600080fd5b506104d7610d8d565b6040516104e49190612d94565b60405180910390f35b3480156104f957600080fd5b50610502610da0565b60405161050f9190612ecc565b60405180910390f35b34801561052457600080fd5b5061053f600480360381019061053a9190612e63565b610dc6565b60405161054c9190612dbe565b60405180910390f35b34801561056157600080fd5b5061057c60048036038101906105779190612e63565b610e0f565b6040516105899190612d94565b60405180910390f35b34801561059e57600080fd5b506105b960048036038101906105b49190612e63565b610e2f565b005b3480156105c757600080fd5b506105d0610ed2565b6040516105dd9190612dbe565b60405180910390f35b3480156105f257600080fd5b5061060d60048036038101906106089190612ee7565b610ed8565b005b34801561061b57600080fd5b50610624611165565b005b34801561063257600080fd5b5061063b611254565b6040516106489190612ecc565b60405180910390f35b34801561065d57600080fd5b5061066661127d565b6040516106739190612c12565b60405180910390f35b34801561068857600080fd5b506106a3600480360381019061069e9190612ee7565b6112ba565b005b3480156106b157600080fd5b506106cc60048036038101906106c79190612d45565b611388565b6040516106d99190612d94565b60405180910390f35b3480156106ee57600080fd5b5061070960048036038101906107049190612e63565b61139d565b6040516107169190612d94565b60405180910390f35b34801561072b57600080fd5b506107346113bd565b6040516107419190612d94565b60405180910390f35b34801561075657600080fd5b50610771600480360381019061076c9190612f27565b6113d4565b005b34801561077f57600080fd5b5061079a60048036038101906107959190612f27565b611504565b005b3480156107a857600080fd5b506107c360048036038101906107be9190612e63565b611634565b005b3480156107d157600080fd5b506107da6116d6565b6040516107e79190612dbe565b60405180910390f35b3480156107fc57600080fd5b506108056116dc565b6040516108129190612dbe565b60405180910390f35b34801561082757600080fd5b506108306116e2565b60405161083d9190612ecc565b60405180910390f35b34801561085257600080fd5b5061085b611708565b6040516108689190612ecc565b60405180910390f35b34801561087d57600080fd5b5061089860048036038101906108939190612f67565b61172e565b005b3480156108a657600080fd5b506108c160048036038101906108bc9190612ee7565b611811565b6040516108ce9190612dbe565b60405180910390f35b3480156108e357600080fd5b506108ec611898565b6040516108f99190612d94565b60405180910390f35b34801561090e57600080fd5b506109176118ab565b6040516109249190612dbe565b60405180910390f35b34801561093957600080fd5b506109426118b1565b005b34801561095057600080fd5b5061096b60048036038101906109669190612ff8565b611942565b005b34801561097957600080fd5b50610982611a5b565b60405161098f9190613084565b60405180910390f35b3480156109a457600080fd5b506109bf60048036038101906109ba9190612e63565b611a81565b6040516109cc9190612d94565b60405180910390f35b60606040518060400160405280600881526020017f5265666c65637479000000000000000000000000000000000000000000000000815250905090565b610a1b33611a81565b610a5a576040517f08c379a0000000000000000000000000000000000000000000000000000000008152600401610a5190613111565b60405180910390fd5b6012600a610a689190613293565b6103e8610a7591906132de565b811115610a8157600080fd5b81601260006101000a81548160ff021916908315150217905550806013819055505050565b600081600660003373ffffffffffffffffffffffffffffffffffffffff1673ffffffffffffffffffffffffffffffffffffffff16815260200190815260200160002060008573ffffffffffffffffffffffffffffffffffffffff1673ffffffffffffffffffffffffffffffffffffffff168152602001908152602001600020819055508273ffffffffffffffffffffffffffffffffffffffff163373ffffffffffffffffffffffffffffffffffffffff167f8c5be1e5ebec7d5bd14f71427d1e84f3dd0314c0f7b2291e5b200ac8c7c3b92584604051610b869190612dbe565b60405180910390a36001905092915050565b600b5481565b6000600354905090565b6000610bb5848484611ad7565b90509392505050565b60006012905090565b60011515610bd36113bd565b15151480610be65750610be533611a81565b5b610c25576040517f08c379a0000000000000000000000000000000000000000000000000000000008152600401610c1c90613384565b60405180910390fd5b610c2e336120a2565b610c6d576040517f08c379a0000000000000000000000000000000000000000000000000000000008152600401610c6490613416565b60405180910390fd5b6000600260006101000a81548160ff0219169083151502179055507fa45f47fdea8a1efdd9029a5691c7f759c32b7c698632b563573e155625d1693360405160405180910390a1565b6000610ce2827fffffffffffffffffffffffffffffffffffffffffffffffffffffffffffffffff610aa6565b9050919050565b610cf233611a81565b610d31576040517f08c379a0000000000000000000000000000000000000000000000000000000008152600401610d2890613111565b60405180910390fd5b6103e8600354610d419190613465565b811015610d83576040517f08c379a0000000000000000000000000000000000000000000000000000000008152600401610d7a906134e2565b60405180910390fd5b8060048190555050565b600260009054906101000a900460ff1681565b601060009054906101000a900473ffffffffffffffffffffffffffffffffffffffff1681565b6000600560008373ffffffffffffffffffffffffffffffffffffffff1673ffffffffffffffffffffffffffffffffffffffff168152602001908152602001600020549050919050565b60076020528060005260406000206000915054906101000a900460ff1681565b610e38336120a2565b610e77576040517f08c379a0000000000000000000000000000000000000000000000000000000008152600401610e6e90613416565b60405180910390fd5b6000600160008373ffffffffffffffffffffffffffffffffffffffff1673ffffffffffffffffffffffffffffffffffffffff16815260200190815260200160002060006101000a81548160ff02191690831515021790555050565b60045481565b610ee133611a81565b610f20576040517f08c379a0000000000000000000000000000000000000000000000000000000008152600401610f1790613111565b60405180910390fd5b6000600660003073ffffffffffffffffffffffffffffffffffffffff1673ffffffffffffffffffffffffffffffffffffffff1681526020019081526020016000206000600e60009054906101000a900473ffffffffffffffffffffffffffffffffffffffff1673ffffffffffffffffffffffffffffffffffffffff1673ffffffffffffffffffffffffffffffffffffffff1681526020019081526020016000208190555081600e60006101000a81548173ffffffffffffffffffffffffffffffffffffffff021916908373ffffffffffffffffffffffffffffffffffffffff16021790555080601060006101000a81548173ffffffffffffffffffffffffffffffffffffffff021916908373ffffffffffffffffffffffffffffffffffffffff160217905550600160076000601060009054906101000a900473ffffffffffffffffffffffffffffffffffffffff1673ffffffffffffffffffffffffffffffffffffffff1673ffffffffffffffffffffffffffffffffffffffff16815260200190815260200160002060006101000a81548160ff0219169083151502179055507fffffffffffffffffffffffffffffffffffffffffffffffffffffffffffffffff600660003073ffffffffffffffffffffffffffffffffffffffff1673ffffffffffffffffffffffffffffffffffffffff16815260200190815260200160002060008473ffffffffffffffffffffffffffffffffffffffff1673ffffffffffffffffffffffffffffffffffffffff168152602001908152602001600020819055505050565b600015156111716113bd565b15151480611184575061118333611a81565b5b6111c3576040517f08c379a00000000000000000000000000000000000000000000000000000000081526004016111ba9061354e565b60405180910390fd5b6111cc336120a2565b61120b576040517f08c379a000000000000000000000000000000000000000000000000000000000815260040161120290613416565b60405180910390fd5b6001600260006101000a81548160ff0219169083151502179055507f9e87fac88ff661f02d44f95383c817fece4bce600a3dab7a54406878b965e75260405160405180910390a1565b60008060009054906101000a900473ffffffffffffffffffffffffffffffffffffffff16905090565b60606040518060400160405280600381526020017f5246540000000000000000000000000000000000000000000000000000000000815250905090565b6112c333611a81565b611302576040517f08c379a00000000000000000000000000000000000000000000000000000000081526004016112f990613111565b60405180910390fd5b81600c60006101000a81548173ffffffffffffffffffffffffffffffffffffffff021916908373ffffffffffffffffffffffffffffffffffffffff16021790555080600d60006101000a81548173ffffffffffffffffffffffffffffffffffffffff021916908373ffffffffffffffffffffffffffffffffffffffff1602179055505050565b6000611395338484611ad7565b905092915050565b60086020528060005260406000206000915054906101000a900460ff1681565b6000600260009054906101000a900460ff16905090565b6113dd33611a81565b61141c576040517f08c379a000000000000000000000000000000000000000000000000000000000815260040161141390613111565b60405180910390fd5b600760008373ffffffffffffffffffffffffffffffffffffffff1673ffffffffffffffffffffffffffffffffffffffff16815260200190815260200160002060009054906101000a900460ff16156114a9576040517f08c379a00000000000000000000000000000000000000000000000000000000081526004016114a0906135ba565b60405180910390fd5b80600860008473ffffffffffffffffffffffffffffffffffffffff1673ffffffffffffffffffffffffffffffffffffffff16815260200190815260200160002060006101000a81548160ff0219169083151502179055505050565b61150d33611a81565b61154c576040517f08c379a000000000000000000000000000000000000000000000000000000000815260040161154390613111565b60405180910390fd5b600860008373ffffffffffffffffffffffffffffffffffffffff1673ffffffffffffffffffffffffffffffffffffffff16815260200190815260200160002060009054906101000a900460ff16156115d9576040517f08c379a00000000000000000000000000000000000000000000000000000000081526004016115d090613626565b60405180910390fd5b80600760008473ffffffffffffffffffffffffffffffffffffffff1673ffffffffffffffffffffffffffffffffffffffff16815260200190815260200160002060006101000a81548160ff0219169083151502179055505050565b61163d33611a81565b61167c576040517f08c379a000000000000000000000000000000000000000000000000000000000815260040161167390613111565b60405180910390fd5b60018060008373ffffffffffffffffffffffffffffffffffffffff1673ffffffffffffffffffffffffffffffffffffffff16815260200190815260200160002060006101000a81548160ff02191690831515021790555050565b60135481565b60095481565b600d60009054906101000a900473ffffffffffffffffffffffffffffffffffffffff1681565b600c60009054906101000a900473ffffffffffffffffffffffffffffffffffffffff1681565b61173733611a81565b611776576040517f08c379a000000000000000000000000000000000000000000000000000000000815260040161176d90613111565b60405180910390fd5b8260098190555081600a8190555080600b81905550600a6117cb600b546117bd60646117af600a546009546120fb90919063ffffffff16565b61211190919063ffffffff16565b61212790919063ffffffff16565b111561180c576040517f08c379a000000000000000000000000000000000000000000000000000000000815260040161180390613692565b60405180910390fd5b505050565b6000600660008473ffffffffffffffffffffffffffffffffffffffff1673ffffffffffffffffffffffffffffffffffffffff16815260200190815260200160002060008373ffffffffffffffffffffffffffffffffffffffff1673ffffffffffffffffffffffffffffffffffffffff16815260200190815260200160002054905092915050565b601260009054906101000a900460ff1681565b600a5481565b6118ba33611a81565b6118f9576040517f08c379a00000000000000000000000000000000000000000000000000000000081526004016118f090613111565b60405180910390fd5b3373ffffffffffffffffffffffffffffffffffffffff166108fc479081150290604051600060405180830381858888f1935050505015801561193f573d6000803e3d6000fd5b50565b61194b336120a2565b61198a576040517f08c379a000000000000000000000000000000000000000000000000000000000815260040161198190613416565b60405180910390fd5b806000806101000a81548173ffffffffffffffffffffffffffffffffffffffff021916908373ffffffffffffffffffffffffffffffffffffffff16021790555060018060008373ffffffffffffffffffffffffffffffffffffffff1673ffffffffffffffffffffffffffffffffffffffff16815260200190815260200160002060006101000a81548160ff0219169083151502179055507f04dba622d284ed0014ee4b9a6a68386be1a4c08a4913ae272de89199cc68616381604051611a5091906136d3565b60405180910390a150565b600e60009054906101000a900473ffffffffffffffffffffffffffffffffffffffff1681565b6000600160008373ffffffffffffffffffffffffffffffffffffffff1673ffffffffffffffffffffffffffffffffffffffff16815260200190815260200160002060009054906101000a900460ff169050919050565b600083600260009054906101000a900460ff161580611afb5750611afa81611a81565b5b80611b0b5750611b0a33611a81565b5b611b4a576040517f08c379a0000000000000000000000000000000000000000000000000000000008152600401611b419061373a565b60405180910390fd5b611b5585858561213d565b3373ffffffffffffffffffffffffffffffffffffffff168573ffffffffffffffffffffffffffffffffffffffff1614158015611c2d57507fffffffffffffffffffffffffffffffffffffffffffffffffffffffffffffffff600660008773ffffffffffffffffffffffffffffffffffffffff1673ffffffffffffffffffffffffffffffffffffffff16815260200190815260200160002060003373ffffffffffffffffffffffffffffffffffffffff1673ffffffffffffffffffffffffffffffffffffffff1681526020019081526020016000205414155b15611d7957611cf8836040518060400160405280601681526020017f496e73756666696369656e7420416c6c6f77616e636500000000000000000000815250600660008973ffffffffffffffffffffffffffffffffffffffff1673ffffffffffffffffffffffffffffffffffffffff16815260200190815260200160002060003373ffffffffffffffffffffffffffffffffffffffff1673ffffffffffffffffffffffffffffffffffffffff1681526020019081526020016000205461222f9092919063ffffffff16565b600660008773ffffffffffffffffffffffffffffffffffffffff1673ffffffffffffffffffffffffffffffffffffffff16815260200190815260200160002060003373ffffffffffffffffffffffffffffffffffffffff1673ffffffffffffffffffffffffffffffffffffffff168152602001908152602001600020819055505b6000601154148015611dd85750601060009054906101000a900473ffffffffffffffffffffffffffffffffffffffff1673ffffffffffffffffffffffffffffffffffffffff168473ffffffffffffffffffffffffffffffffffffffff16145b15611de657611de5612284565b5b6000611df061228d565b8015611e9a5750600860008773ffffffffffffffffffffffffffffffffffffffff1673ffffffffffffffffffffffffffffffffffffffff16815260200190815260200160002060009054906101000a900460ff1680611e985750600860008673ffffffffffffffffffffffffffffffffffffffff1673ffffffffffffffffffffffffffffffffffffffff16815260200190815260200160002060009054906101000a900460ff165b155b90508015611eab57611eaa612364565b5b611f34846040518060400160405280601481526020017f496e73756666696369656e742042616c616e6365000000000000000000000000815250600560008a73ffffffffffffffffffffffffffffffffffffffff1673ffffffffffffffffffffffffffffffffffffffff1681526020019081526020016000205461222f9092919063ffffffff16565b600560008873ffffffffffffffffffffffffffffffffffffffff1673ffffffffffffffffffffffffffffffffffffffff168152602001908152602001600020819055506000611f838787612688565b611f8d5784611f98565b611f9787866127fa565b5b9050611fec81600560008973ffffffffffffffffffffffffffffffffffffffff1673ffffffffffffffffffffffffffffffffffffffff168152602001908152602001600020546120fb90919063ffffffff16565b600560008873ffffffffffffffffffffffffffffffffffffffff1673ffffffffffffffffffffffffffffffffffffffff168152602001908152602001600020819055508573ffffffffffffffffffffffffffffffffffffffff168773ffffffffffffffffffffffffffffffffffffffff167fddf252ad1be2c89b69c2b068fc378daa952ba7f163c4a11628f55a4df523b3ef8360405161208c9190612dbe565b60405180910390a3600193505050509392505050565b60008060009054906101000a900473ffffffffffffffffffffffffffffffffffffffff1673ffffffffffffffffffffffffffffffffffffffff168273ffffffffffffffffffffffffffffffffffffffff16149050919050565b60008183612109919061375a565b905092915050565b6000818361211f91906132de565b905092915050565b600081836121359190613465565b905092915050565b600454811115806121975750600860008473ffffffffffffffffffffffffffffffffffffffff1673ffffffffffffffffffffffffffffffffffffffff16815260200190815260200160002060009054906101000a900460ff165b806121eb5750600860008373ffffffffffffffffffffffffffffffffffffffff1673ffffffffffffffffffffffffffffffffffffffff16815260200190815260200160002060009054906101000a900460ff165b61222a576040517f08c379a0000000000000000000000000000000000000000000000000000000008152600401612221906137fc565b60405180910390fd5b505050565b6000838311158290612277576040517f08c379a000000000000000000000000000000000000000000000000000000000815260040161226e9190612c12565b60405180910390fd5b5082840390509392505050565b43601181905550565b6000601060009054906101000a900473ffffffffffffffffffffffffffffffffffffffff1673ffffffffffffffffffffffffffffffffffffffff163373ffffffffffffffffffffffffffffffffffffffff16141580156122fa5750601460009054906101000a900460ff16155b80156123125750601260009054906101000a900460ff165b801561235f5750601354600560003073ffffffffffffffffffffffffffffffffffffffff1673ffffffffffffffffffffffffffffffffffffffff1681526020019081526020016000205410155b905090565b6001601460006101000a81548160ff0219169083151502179055506000612397600260135461212790919063ffffffff16565b90506000600267ffffffffffffffff8111156123b6576123b561381c565b5b6040519080825280602002602001820160405280156123e45781602001602082028036833780820191505090505b50905030816000815181106123fc576123fb61384b565b5b602002602001019073ffffffffffffffffffffffffffffffffffffffff16908173ffffffffffffffffffffffffffffffffffffffff1681525050600f60009054906101000a900473ffffffffffffffffffffffffffffffffffffffff168160018151811061246d5761246c61384b565b5b602002602001019073ffffffffffffffffffffffffffffffffffffffff16908173ffffffffffffffffffffffffffffffffffffffff16815250506000479050600e60009054906101000a900473ffffffffffffffffffffffffffffffffffffffff1673ffffffffffffffffffffffffffffffffffffffff1663791ac9478460008530426040518663ffffffff1660e01b8152600401612510959493929190613973565b600060405180830381600087803b15801561252a57600080fd5b505af192505050801561253b575060015b61254457612545565b5b600061255a8247612ae390919063ffffffff16565b9050600e60009054906101000a900473ffffffffffffffffffffffffffffffffffffffff1673ffffffffffffffffffffffffffffffffffffffff1663f305d719823087600080600c60009054906101000a900473ffffffffffffffffffffffffffffffffffffffff16426040518863ffffffff1660e01b81526004016125e5969594939291906139cd565b60606040518083038185885af19350505050801561262157506040513d601f19601f8201168201806040525081019061261e9190613a43565b60015b61262a57612667565b5050507f424db2872186fa7e7afa7a5e902ed3b49a2ef19c2f5431e672462495dd6b4506818560405161265e929190613a96565b60405180910390a15b505050506000601460006101000a81548160ff021916908315150217905550565b6000600860008473ffffffffffffffffffffffffffffffffffffffff1673ffffffffffffffffffffffffffffffffffffffff16815260200190815260200160002060009054906101000a900460ff168061272b5750600860008373ffffffffffffffffffffffffffffffffffffffff1673ffffffffffffffffffffffffffffffffffffffff16815260200190815260200160002060009054906101000a900460ff165b806127425750601460009054906101000a900460ff165b1561275057600090506127f4565b600760008473ffffffffffffffffffffffffffffffffffffffff1673ffffffffffffffffffffffffffffffffffffffff16815260200190815260200160002060009054906101000a900460ff16806127f15750600760008373ffffffffffffffffffffffffffffffffffffffff1673ffffffffffffffffffffffffffffffffffffffff16815260200190815260200160002060009054906101000a900460ff165b90505b92915050565b60008061282b600b5461281d61280e612af9565b8661211190919063ffffffff16565b61212790919063ffffffff16565b90506000612858600b5461284a600a548761211190919063ffffffff16565b61212790919063ffffffff16565b90506128ac82600560003073ffffffffffffffffffffffffffffffffffffffff1673ffffffffffffffffffffffffffffffffffffffff168152602001908152602001600020546120fb90919063ffffffff16565b600560003073ffffffffffffffffffffffffffffffffffffffff1673ffffffffffffffffffffffffffffffffffffffff168152602001908152602001600020819055506129638160056000600d60009054906101000a900473ffffffffffffffffffffffffffffffffffffffff1673ffffffffffffffffffffffffffffffffffffffff1673ffffffffffffffffffffffffffffffffffffffff168152602001908152602001600020546120fb90919063ffffffff16565b60056000600d60009054906101000a900473ffffffffffffffffffffffffffffffffffffffff1673ffffffffffffffffffffffffffffffffffffffff1673ffffffffffffffffffffffffffffffffffffffff168152602001908152602001600020819055503073ffffffffffffffffffffffffffffffffffffffff168573ffffffffffffffffffffffffffffffffffffffff167fddf252ad1be2c89b69c2b068fc378daa952ba7f163c4a11628f55a4df523b3ef84604051612a259190612dbe565b60405180910390a3600d60009054906101000a900473ffffffffffffffffffffffffffffffffffffffff1673ffffffffffffffffffffffffffffffffffffffff168573ffffffffffffffffffffffffffffffffffffffff167fddf252ad1be2c89b69c2b068fc378daa952ba7f163c4a11628f55a4df523b3ef83604051612aac9190612dbe565b60405180910390a3612ad981612acb8487612ae390919063ffffffff16565b612ae390919063ffffffff16565b9250505092915050565b60008183612af19190613abf565b905092915050565b6000436001601154612b0b919061375a565b10612b4157612b3a6001612b2c600a54600b54612ae390919063ffffffff16565b612ae390919063ffffffff16565b9050612b47565b60095490505b90565b7f4e487b7100000000000000000000000000000000000000000000000000000000600052600160045260246000fd5b600081519050919050565b600082825260208201905092915050565b60005b83811015612bb3578082015181840152602081019050612b98565b83811115612bc2576000848401525b50505050565b6000601f19601f8301169050919050565b6000612be482612b79565b612bee8185612b84565b9350612bfe818560208601612b95565b612c0781612bc8565b840191505092915050565b60006020820190508181036000830152612c2c8184612bd9565b905092915050565b600080fd5b60008115159050919050565b612c4e81612c39565b8114612c5957600080fd5b50565b600081359050612c6b81612c45565b92915050565b6000819050919050565b612c8481612c71565b8114612c8f57600080fd5b50565b600081359050612ca181612c7b565b92915050565b60008060408385031215612cbe57612cbd612c34565b5b6000612ccc85828601612c5c565b9250506020612cdd85828601612c92565b9150509250929050565b600073ffffffffffffffffffffffffffffffffffffffff82169050919050565b6000612d1282612ce7565b9050919050565b612d2281612d07565b8114612d2d57600080fd5b50565b600081359050612d3f81612d19565b92915050565b60008060408385031215612d5c57612d5b612c34565b5b6000612d6a85828601612d30565b9250506020612d7b85828601612c92565b9150509250929050565b612d8e81612c39565b82525050565b6000602082019050612da96000830184612d85565b92915050565b612db881612c71565b82525050565b6000602082019050612dd36000830184612daf565b92915050565b600080600060608486031215612df257612df1612c34565b5b6000612e0086828701612d30565b9350506020612e1186828701612d30565b9250506040612e2286828701612c92565b9150509250925092565b600060ff82169050919050565b612e4281612e2c565b82525050565b6000602082019050612e5d6000830184612e39565b92915050565b600060208284031215612e7957612e78612c34565b5b6000612e8784828501612d30565b91505092915050565b600060208284031215612ea657612ea5612c34565b5b6000612eb484828501612c92565b91505092915050565b612ec681612d07565b82525050565b6000602082019050612ee16000830184612ebd565b92915050565b60008060408385031215612efe57612efd612c34565b5b6000612f0c85828601612d30565b9250506020612f1d85828601612d30565b9150509250929050565b60008060408385031215612f3e57612f3d612c34565b5b6000612f4c85828601612d30565b9250506020612f5d85828601612c5c565b9150509250929050565b600080600060608486031215612f8057612f7f612c34565b5b6000612f8e86828701612c92565b9350506020612f9f86828701612c92565b9250506040612fb086828701612c92565b9150509250925092565b6000612fc582612ce7565b9050919050565b612fd581612fba565b8114612fe057600080fd5b50565b600081359050612ff281612fcc565b92915050565b60006020828403121561300e5761300d612c34565b5b600061301c84828501612fe3565b91505092915050565b6000819050919050565b600061304a61304561304084612ce7565b613025565b612ce7565b9050919050565b600061305c8261302f565b9050919050565b600061306e82613051565b9050919050565b61307e81613063565b82525050565b60006020820190506130996000830184613075565b92915050565b7f4f6e6c7920617574686f72697a65642075736572732063616e2063616c6c207460008201527f6869732066756e6374696f6e0000000000000000000000000000000000000000602082015250565b60006130fb602c83612b84565b91506131068261309f565b604082019050919050565b6000602082019050818103600083015261312a816130ee565b9050919050565b7f4e487b7100000000000000000000000000000000000000000000000000000000600052601160045260246000fd5b60008160011c9050919050565b6000808291508390505b60018511156131b75780860481111561319357613192613131565b5b60018516156131a25780820291505b80810290506131b085613160565b9450613177565b94509492505050565b6000826131d0576001905061328c565b816131de576000905061328c565b81600181146131f457600281146131fe5761322d565b600191505061328c565b60ff8411156132105761320f613131565b5b8360020a91508482111561322757613226613131565b5b5061328c565b5060208310610133831016604e8410600b84101617156132625782820a90508381111561325d5761325c613131565b5b61328c565b61326f848484600161316d565b9250905081840481111561328657613285613131565b5b81810290505b9392505050565b600061329e82612c71565b91506132a983612e2c565b92506132d67fffffffffffffffffffffffffffffffffffffffffffffffffffffffffffffffff84846131c0565b905092915050565b60006132e982612c71565b91506132f483612c71565b9250817fffffffffffffffffffffffffffffffffffffffffffffffffffffffffffffffff048311821515161561332d5761332c613131565b5b828202905092915050565b7f436f6e7472616374206973206163746976650000000000000000000000000000600082015250565b600061336e601283612b84565b915061337982613338565b602082019050919050565b6000602082019050818103600083015261339d81613361565b9050919050565b7f4f6e6c79206f776e65722063616e2063616c6c20746869732066756e6374696f60008201527f6e00000000000000000000000000000000000000000000000000000000000000602082015250565b6000613400602183612b84565b915061340b826133a4565b604082019050919050565b6000602082019050818103600083015261342f816133f3565b9050919050565b7f4e487b7100000000000000000000000000000000000000000000000000000000600052601260045260246000fd5b600061347082612c71565b915061347b83612c71565b92508261348b5761348a613436565b5b828204905092915050565b7f4c696d697420746f6f206c6f7700000000000000000000000000000000000000600082015250565b60006134cc600d83612b84565b91506134d782613496565b602082019050919050565b600060208201905081810360008301526134fb816134bf565b9050919050565b7f436f6e7472616374206973207061757365640000000000000000000000000000600082015250565b6000613538601283612b84565b915061354382613502565b602082019050919050565b600060208201905081810360008301526135678161352b565b9050919050565b7f4861732046656500000000000000000000000000000000000000000000000000600082015250565b60006135a4600783612b84565b91506135af8261356e565b602082019050919050565b600060208201905081810360008301526135d381613597565b9050919050565b7f4973204578656d70740000000000000000000000000000000000000000000000600082015250565b6000613610600983612b84565b915061361b826135da565b602082019050919050565b6000602082019050818103600083015261363f81613603565b9050919050565b7f466565204c696d69742045786365656465640000000000000000000000000000600082015250565b600061367c601283612b84565b915061368782613646565b602082019050919050565b600060208201905081810360008301526136ab8161366f565b9050919050565b60006136bd82613051565b9050919050565b6136cd816136b2565b82525050565b60006020820190506136e860008301846136c4565b92915050565b7f50524f5445435445440000000000000000000000000000000000000000000000600082015250565b6000613724600983612b84565b915061372f826136ee565b602082019050919050565b6000602082019050818103600083015261375381613717565b9050919050565b600061376582612c71565b915061377083612c71565b9250827fffffffffffffffffffffffffffffffffffffffffffffffffffffffffffffffff038211156137a5576137a4613131565b5b828201905092915050565b7f5458204c696d6974204578636565646564000000000000000000000000000000600082015250565b60006137e6601183612b84565b91506137f1826137b0565b602082019050919050565b60006020820190508181036000830152613815816137d9565b9050919050565b7f4e487b7100000000000000000000000000000000000000000000000000000000600052604160045260246000fd5b7f4e487b7100000000000000000000000000000000000000000000000000000000600052603260045260246000fd5b6000819050919050565b600061389f61389a6138958461387a565b613025565b612c71565b9050919050565b6138af81613884565b82525050565b600081519050919050565b600082825260208201905092915050565b6000819050602082019050919050565b6138ea81612d07565b82525050565b60006138fc83836138e1565b60208301905092915050565b6000602082019050919050565b6000613920826138b5565b61392a81856138c0565b9350613935836138d1565b8060005b8381101561396657815161394d88826138f0565b975061395883613908565b925050600181019050613939565b5085935050505092915050565b600060a0820190506139886000830188612daf565b61399560208301876138a6565b81810360408301526139a78186613915565b90506139b66060830185612ebd565b6139c36080830184612daf565b9695505050505050565b600060c0820190506139e26000830189612ebd565b6139ef6020830188612daf565b6139fc60408301876138a6565b613a0960608301866138a6565b613a166080830185612ebd565b613a2360a0830184612daf565b979650505050505050565b600081519050613a3d81612c7b565b92915050565b600080600060608486031215613a5c57613a5b612c34565b5b6000613a6a86828701613a2e565b9350506020613a7b86828701613a2e565b9250506040613a8c86828701613a2e565b9150509250925092565b6000604082019050613aab6000830185612daf565b613ab86020830184612daf565b9392505050565b6000613aca82612c71565b9150613ad583612c71565b925082821015613ae857613ae7613131565b5b82820390509291505056fea2646970667358221220799f532b31315a524e32855ca0731f4538bb1b2b1633bb8dcbc01c39bb4499e364736f6c634300080a0033",
  "immutableReferences": {},
  "source": "// SPDX-License-Identifier: MIT\n\npragma solidity ^0.8;\n\nimport \"./interfaces/IBEP20.sol\";\nimport \"./lib/Auth.sol\";\nimport \"./lib/Pausable.sol\";\nimport \"./libraries/SafeMath.sol\";\nimport \"./interfaces/IRouter.sol\";\n\ncontract RFT is IBEP20, Auth, Pausable {\n    using SafeMath for uint;\n\n    string constant _name = \"Reflecty\";\n    string constant _symbol = \"RFT\";\n    uint8 constant _decimals = 18;\n\n    uint256 private _totalSupply = 15000000 * (10 ** _decimals);\n    uint256 public _maxTxAmount = 50000 * (10 ** _decimals);\n\n    mapping (address => uint256) private _balances;\n    mapping (address => mapping (address => uint256)) private _allowances;\n\n    mapping (address => bool) public hasFee;\n    mapping (address => bool) public isExempt;\n\n    uint256 public autoLiquidityFee = 2;\n    uint256 public stakingFee = 3;\n    uint256 public feeDenominator = 100;\n\n    address public autoLiquidityReceiver;\n    address public stakingFeeReceiver;\n\n    IRouter public router;\n    address private WBNB;\n    address public liquifyPair;\n\n    uint256 launchedAt;\n\n    bool public liquifyEnabled = true;\n    uint256 public liquifyAmount = 250 * (10 ** _decimals);\n    bool private inLiquify;\n\n    modifier liquifying() { inLiquify = true; _; inLiquify = false; }\n\n    constructor (address _router) Auth(msg.sender) {\n        router = IRouter(_router);\n        WBNB = router.WETH();\n        liquifyPair = IFactory(router.factory()).createPair(WBNB, address(this));\n\n        _allowances[address(this)][_router] = 2 ** 256 - 1;\n        hasFee[liquifyPair] = true;\n        isExempt[msg.sender] = true;\n        isExempt[address(this)] = true;\n\n        _balances[msg.sender] = _totalSupply;\n        emit Transfer(address(0), msg.sender, _totalSupply);\n\n        (bool success, ) = payable(msg.sender).call{value: address(this).balance}(\"\");\n        if(success){\n            return;\n        }\n    }\n\n    receive() external payable {\n        assert(msg.sender == WBNB || msg.sender == address(router));\n    }\n\n    modifier migrationProtection(address sender) {\n        require(!paused || isAuthorized(sender) || isAuthorized(msg.sender), \"PROTECTED\"); _;\n    }\n\n    function totalSupply() external view override returns (uint256) { return _totalSupply; }\n    function decimals() external pure override returns (uint8) { return _decimals; }\n    function symbol() external pure override returns (string memory) { return _symbol; }\n    function name() external pure override returns (string memory) { return _name; }\n    function getOwner() external view override returns (address) { return owner; }\n    function balanceOf(address account) external view override returns (uint256) { return _balances[account]; }\n    function allowance(address holder, address spender) external view override returns (uint256) { return _allowances[holder][spender]; }\n\n    function approve(address spender, uint256 amount) public override returns (bool) {\n        _allowances[msg.sender][spender] = amount;\n        emit Approval(msg.sender, spender, amount);\n        return true;\n    }\n\n    function approveMax(address spender) external returns (bool) {\n        return approve(spender, 2 ** 256 - 1);\n    }\n\n    function transfer(address recipient, uint256 amount) external override returns (bool) {\n        return _transferFrom(msg.sender, recipient, amount);\n    }\n\n    function transferFrom(address sender, address recipient, uint256 amount) external override returns (bool) {\n        return _transferFrom(sender, recipient, amount);\n    }\n\n    function _transferFrom(address sender, address recipient, uint256 amount) internal migrationProtection(sender) returns (bool) {\n        checkTxLimit(sender, recipient, amount);\n\n        if(sender != msg.sender && _allowances[sender][msg.sender] != 2 ** 256 - 1){\n            _allowances[sender][msg.sender] = _allowances[sender][msg.sender].sub(amount, \"Insufficient Allowance\");\n        }\n\n        if(launchedAt == 0 && recipient == liquifyPair){ launch(); }\n\n        bool shouldLiquify = shouldAutoLiquify() && !(isExempt[sender] || isExempt[recipient]);\n        if(shouldLiquify){ autoLiquify(); }\n\n        _balances[sender] = _balances[sender].sub(amount, \"Insufficient Balance\");\n\n        uint256 amountReceived = shouldTakeFee(sender, recipient) ? takeFee(sender, amount) : amount;\n\n        _balances[recipient] = _balances[recipient].add(amountReceived);\n\n        emit Transfer(sender, recipient, amountReceived);\n        return true;\n    }\n\n    function checkTxLimit(address sender, address recipient, uint256 amount) internal view {\n        require(amount <= _maxTxAmount || isExempt[sender] || isExempt[recipient], \"TX Limit Exceeded\");\n    }\n\n    function takeFee(address sender, uint256 amount) internal returns (uint256) {\n        uint256 liquidityFeeAmount = amount.mul(getLiquidityFee()).div(feeDenominator);\n        uint256 stakingFeeAmount = amount.mul(stakingFee).div(feeDenominator);\n\n        _balances[address(this)] = _balances[address(this)].add(liquidityFeeAmount);\n        _balances[stakingFeeReceiver] = _balances[stakingFeeReceiver].add(stakingFeeAmount);\n\n        emit Transfer(sender, address(this), liquidityFeeAmount);\n        emit Transfer(sender, stakingFeeReceiver, stakingFeeAmount);\n\n        return amount.sub(liquidityFeeAmount).sub(stakingFeeAmount);\n    }\n\n    function getLiquidityFee() internal view returns (uint256) {\n        if(launchedAt + 1 >= block.number){ return feeDenominator.sub(stakingFee).sub(1); }\n        return autoLiquidityFee;\n    }\n\n    function shouldAutoLiquify() internal view returns (bool) {\n        return msg.sender != liquifyPair\n        && !inLiquify\n        && liquifyEnabled\n        && _balances[address(this)] >= liquifyAmount;\n    }\n\n    function autoLiquify() internal liquifying {\n        uint256 amountToSwap = liquifyAmount.div(2);\n\n        address[] memory path = new address[](2);\n        path[0] = address(this);\n        path[1] = WBNB;\n\n        uint256 balanceBefore = address(this).balance;\n\n        try router.swapExactTokensForETHSupportingFeeOnTransferTokens(\n            amountToSwap,\n            0,\n            path,\n            address(this),\n            block.timestamp\n        ) {} catch {}\n\n        uint256 amountBNB = address(this).balance.sub(balanceBefore);\n\n        try router.addLiquidityETH{value: amountBNB}(\n            address(this),\n            amountToSwap,\n            0,\n            0,\n            autoLiquidityReceiver,\n            block.timestamp\n        ) {\n            emit AutoLiquify(amountBNB, amountToSwap);\n        } catch {}\n    }\n\n    function launch() internal {\n        launchedAt = block.number;        \n    }\n\n    function setTxLimit(uint256 amount) external authorized {\n        require(amount >= _totalSupply / 1000, \"Limit too low\");\n        _maxTxAmount = amount;\n    }\n\n    function setLiquify(bool enabled, uint256 amount) external authorized {\n        require(amount <= 1000 * (10 ** _decimals));\n        liquifyEnabled = enabled;\n        liquifyAmount = amount;\n    }\n\n    function migrateAutoLiquidityDEX(address _router, address _liquifyPair) external authorized {\n        _allowances[address(this)][address(router)] = 0;\n        router = IRouter(_router);\n        liquifyPair = _liquifyPair;\n        hasFee[liquifyPair] = true;\n        _allowances[address(this)][_router] = 2 ** 256 - 1;\n    }\n\n    function shouldTakeFee(address sender, address recipient) internal view returns (bool) {\n        if(isExempt[sender] || isExempt[recipient] || inLiquify){ return false; }\n        return hasFee[sender] || hasFee[recipient];\n    }\n\n    function setHasFee(address adr, bool state) external authorized {\n        require(!isExempt[adr], \"Is Exempt\");\n        hasFee[adr] = state;\n    }\n\n    function setIsExempt(address adr, bool state) external authorized {\n        require(!hasFee[adr], \"Has Fee\");\n        isExempt[adr] = state;\n    }\n\n    function setFees(uint256 _liquidityFee, uint256 _stakingFee, uint256 _feeDenominator) external authorized {\n        autoLiquidityFee = _liquidityFee;\n        stakingFee = _stakingFee;\n\n        feeDenominator = _feeDenominator;\n\n        require(autoLiquidityFee.add(stakingFee).mul(100).div(feeDenominator) <= 10, \"Fee Limit Exceeded\");\n    }\n\n    function setFeeReceivers(address _autoLiquidityReceiver, address _stakingFeeReceiver) external authorized {\n        autoLiquidityReceiver = _autoLiquidityReceiver;\n        stakingFeeReceiver = _stakingFeeReceiver;\n    }\n\n    function rescueBNB() external authorized {\n        payable(msg.sender).transfer(address(this).balance);\n    }\n\n    event AutoLiquify(uint256 amountBNB, uint256 amountBOG);\n}",
  "sourcePath": "/Users/nolannbiron/Documents/PROJETS/cryptoBots/StakingApp/Staking/contracts/RFT.sol",
  "compiler": {
    "name": "solc",
    "version": "0.8.10+commit.fc410830.Emscripten.clang"
  },
  "schemaVersion": "3.4.4",
  "updatedAt": "2022-01-24T23:54:57.642Z",
  "networkType": "ethereum",
  "devdoc": {
    "kind": "dev",
    "methods": {},
    "version": 1
  },
  "userdoc": {
    "kind": "user",
    "methods": {},
    "version": 1
  }
}