{
  "contractName": "RFTStake",
  "abi": [
    {
      "inputs": [
        {
          "internalType": "address",
          "name": "_stakingToken",
          "type": "address"
        },
        {
          "internalType": "address",
          "name": "_rewardToken",
          "type": "address"
        }
      ],
      "stateMutability": "nonpayable",
      "type": "constructor"
    },
    {
      "anonymous": false,
      "inputs": [
        {
          "indexed": false,
          "internalType": "address",
          "name": "adr",
          "type": "address"
        }
      ],
      "name": "Authorized",
      "type": "event"
    },
    {
      "anonymous": false,
      "inputs": [
        {
          "indexed": false,
          "internalType": "address",
          "name": "account",
          "type": "address"
        },
        {
          "indexed": false,
          "internalType": "uint256",
          "name": "amount",
          "type": "uint256"
        }
      ],
      "name": "Compounded",
      "type": "event"
    },
    {
      "anonymous": false,
      "inputs": [
        {
          "indexed": false,
          "internalType": "address",
          "name": "account",
          "type": "address"
        },
        {
          "indexed": false,
          "internalType": "uint256",
          "name": "amount",
          "type": "uint256"
        }
      ],
      "name": "EarlyWithdrawalPenalty",
      "type": "event"
    },
    {
      "anonymous": false,
      "inputs": [
        {
          "indexed": false,
          "internalType": "address",
          "name": "owner",
          "type": "address"
        }
      ],
      "name": "OwnershipTransferred",
      "type": "event"
    },
    {
      "anonymous": false,
      "inputs": [],
      "name": "Paused",
      "type": "event"
    },
    {
      "anonymous": false,
      "inputs": [
        {
          "indexed": false,
          "internalType": "address",
          "name": "account",
          "type": "address"
        },
        {
          "indexed": false,
          "internalType": "uint256",
          "name": "amount",
          "type": "uint256"
        }
      ],
      "name": "Realised",
      "type": "event"
    },
    {
      "anonymous": false,
      "inputs": [
        {
          "indexed": false,
          "internalType": "address",
          "name": "account",
          "type": "address"
        },
        {
          "indexed": false,
          "internalType": "uint256",
          "name": "amount",
          "type": "uint256"
        }
      ],
      "name": "Staked",
      "type": "event"
    },
    {
      "anonymous": false,
      "inputs": [
        {
          "indexed": false,
          "internalType": "address",
          "name": "adr",
          "type": "address"
        }
      ],
      "name": "Unauthorized",
      "type": "event"
    },
    {
      "anonymous": false,
      "inputs": [],
      "name": "Unpaused",
      "type": "event"
    },
    {
      "anonymous": false,
      "inputs": [
        {
          "indexed": false,
          "internalType": "address",
          "name": "account",
          "type": "address"
        },
        {
          "indexed": false,
          "internalType": "uint256",
          "name": "amount",
          "type": "uint256"
        }
      ],
      "name": "Unstaked",
      "type": "event"
    },
    {
      "inputs": [
        {
          "internalType": "address",
          "name": "_account",
          "type": "address"
        }
      ],
      "name": "authorize",
      "outputs": [],
      "stateMutability": "nonpayable",
      "type": "function"
    },
    {
      "inputs": [
        {
          "internalType": "address",
          "name": "_account",
          "type": "address"
        }
      ],
      "name": "isAuthorized",
      "outputs": [
        {
          "internalType": "bool",
          "name": "",
          "type": "bool"
        }
      ],
      "stateMutability": "view",
      "type": "function",
      "constant": true
    },
    {
      "inputs": [],
      "name": "isPaused",
      "outputs": [
        {
          "internalType": "bool",
          "name": "",
          "type": "bool"
        }
      ],
      "stateMutability": "view",
      "type": "function",
      "constant": true
    },
    {
      "inputs": [],
      "name": "pause",
      "outputs": [],
      "stateMutability": "nonpayable",
      "type": "function"
    },
    {
      "inputs": [],
      "name": "paused",
      "outputs": [
        {
          "internalType": "bool",
          "name": "",
          "type": "bool"
        }
      ],
      "stateMutability": "view",
      "type": "function",
      "constant": true
    },
    {
      "inputs": [],
      "name": "penaltyFee",
      "outputs": [
        {
          "internalType": "uint256",
          "name": "",
          "type": "uint256"
        }
      ],
      "stateMutability": "view",
      "type": "function",
      "constant": true
    },
    {
      "inputs": [],
      "name": "penaltyFeeDenominator",
      "outputs": [
        {
          "internalType": "uint256",
          "name": "",
          "type": "uint256"
        }
      ],
      "stateMutability": "view",
      "type": "function",
      "constant": true
    },
    {
      "inputs": [],
      "name": "penaltyFeeReceiver",
      "outputs": [
        {
          "internalType": "address",
          "name": "",
          "type": "address"
        }
      ],
      "stateMutability": "view",
      "type": "function",
      "constant": true
    },
    {
      "inputs": [],
      "name": "penaltyTime",
      "outputs": [
        {
          "internalType": "uint256",
          "name": "",
          "type": "uint256"
        }
      ],
      "stateMutability": "view",
      "type": "function",
      "constant": true
    },
    {
      "inputs": [
        {
          "internalType": "address",
          "name": "_account",
          "type": "address"
        }
      ],
      "name": "revoke",
      "outputs": [],
      "stateMutability": "nonpayable",
      "type": "function"
    },
    {
      "inputs": [],
      "name": "rewardToken",
      "outputs": [
        {
          "internalType": "address",
          "name": "",
          "type": "address"
        }
      ],
      "stateMutability": "view",
      "type": "function",
      "constant": true
    },
    {
      "inputs": [
        {
          "internalType": "address",
          "name": "",
          "type": "address"
        }
      ],
      "name": "stakes",
      "outputs": [
        {
          "internalType": "uint256",
          "name": "lastStaked",
          "type": "uint256"
        },
        {
          "internalType": "uint256",
          "name": "amount",
          "type": "uint256"
        },
        {
          "internalType": "uint256",
          "name": "totalExcluded",
          "type": "uint256"
        },
        {
          "internalType": "uint256",
          "name": "totalRealised",
          "type": "uint256"
        }
      ],
      "stateMutability": "view",
      "type": "function",
      "constant": true
    },
    {
      "inputs": [],
      "name": "stakingToken",
      "outputs": [
        {
          "internalType": "address",
          "name": "",
          "type": "address"
        }
      ],
      "stateMutability": "view",
      "type": "function",
      "constant": true
    },
    {
      "inputs": [],
      "name": "totalRealised",
      "outputs": [
        {
          "internalType": "uint256",
          "name": "",
          "type": "uint256"
        }
      ],
      "stateMutability": "view",
      "type": "function",
      "constant": true
    },
    {
      "inputs": [],
      "name": "totalStaked",
      "outputs": [
        {
          "internalType": "uint256",
          "name": "",
          "type": "uint256"
        }
      ],
      "stateMutability": "view",
      "type": "function",
      "constant": true
    },
    {
      "inputs": [
        {
          "internalType": "address payable",
          "name": "adr",
          "type": "address"
        }
      ],
      "name": "transferOwnership",
      "outputs": [],
      "stateMutability": "nonpayable",
      "type": "function"
    },
    {
      "inputs": [],
      "name": "unpause",
      "outputs": [],
      "stateMutability": "nonpayable",
      "type": "function"
    },
    {
      "inputs": [],
      "name": "getTotalRewards",
      "outputs": [
        {
          "internalType": "uint256",
          "name": "",
          "type": "uint256"
        }
      ],
      "stateMutability": "view",
      "type": "function",
      "constant": true
    },
    {
      "inputs": [],
      "name": "getCumulativeRewardsPerLP",
      "outputs": [
        {
          "internalType": "uint256",
          "name": "",
          "type": "uint256"
        }
      ],
      "stateMutability": "view",
      "type": "function",
      "constant": true
    },
    {
      "inputs": [],
      "name": "getLastContractBalance",
      "outputs": [
        {
          "internalType": "uint256",
          "name": "",
          "type": "uint256"
        }
      ],
      "stateMutability": "view",
      "type": "function",
      "constant": true
    },
    {
      "inputs": [],
      "name": "getAccuracyFactor",
      "outputs": [
        {
          "internalType": "uint256",
          "name": "",
          "type": "uint256"
        }
      ],
      "stateMutability": "view",
      "type": "function",
      "constant": true
    },
    {
      "inputs": [
        {
          "internalType": "address",
          "name": "account",
          "type": "address"
        }
      ],
      "name": "getStake",
      "outputs": [
        {
          "internalType": "uint256",
          "name": "",
          "type": "uint256"
        }
      ],
      "stateMutability": "view",
      "type": "function",
      "constant": true
    },
    {
      "inputs": [
        {
          "internalType": "address",
          "name": "staker",
          "type": "address"
        }
      ],
      "name": "getRealisedEarnings",
      "outputs": [
        {
          "internalType": "uint256",
          "name": "",
          "type": "uint256"
        }
      ],
      "stateMutability": "view",
      "type": "function",
      "constant": true
    },
    {
      "inputs": [
        {
          "internalType": "address",
          "name": "staker",
          "type": "address"
        }
      ],
      "name": "getUnrealisedEarnings",
      "outputs": [
        {
          "internalType": "uint256",
          "name": "",
          "type": "uint256"
        }
      ],
      "stateMutability": "view",
      "type": "function",
      "constant": true
    },
    {
      "inputs": [
        {
          "internalType": "uint256",
          "name": "amount",
          "type": "uint256"
        }
      ],
      "name": "getCumulativeRewards",
      "outputs": [
        {
          "internalType": "uint256",
          "name": "",
          "type": "uint256"
        }
      ],
      "stateMutability": "view",
      "type": "function",
      "constant": true
    },
    {
      "inputs": [
        {
          "internalType": "uint256",
          "name": "amount",
          "type": "uint256"
        }
      ],
      "name": "stake",
      "outputs": [],
      "stateMutability": "nonpayable",
      "type": "function"
    },
    {
      "inputs": [],
      "name": "stakeAll",
      "outputs": [],
      "stateMutability": "nonpayable",
      "type": "function"
    },
    {
      "inputs": [
        {
          "internalType": "uint256",
          "name": "amount",
          "type": "uint256"
        }
      ],
      "name": "unstake",
      "outputs": [],
      "stateMutability": "nonpayable",
      "type": "function"
    },
    {
      "inputs": [],
      "name": "unstakeAll",
      "outputs": [],
      "stateMutability": "nonpayable",
      "type": "function"
    },
    {
      "inputs": [],
      "name": "realise",
      "outputs": [],
      "stateMutability": "nonpayable",
      "type": "function"
    },
    {
      "inputs": [],
      "name": "getCurrentRewardsPerLP",
      "outputs": [
        {
          "internalType": "uint256",
          "name": "currentRewardsPerLP",
          "type": "uint256"
        }
      ],
      "stateMutability": "view",
      "type": "function",
      "constant": true
    },
    {
      "inputs": [],
      "name": "getTokenBalance",
      "outputs": [
        {
          "internalType": "uint256",
          "name": "tokenBalance",
          "type": "uint256"
        }
      ],
      "stateMutability": "view",
      "type": "function",
      "constant": true
    },
    {
      "inputs": [
        {
          "internalType": "uint256",
          "name": "newFactor",
          "type": "uint256"
        }
      ],
      "name": "setAccuracyFactor",
      "outputs": [],
      "stateMutability": "nonpayable",
      "type": "function"
    },
    {
      "inputs": [
        {
          "internalType": "uint256",
          "name": "time",
          "type": "uint256"
        },
        {
          "internalType": "uint256",
          "name": "fee",
          "type": "uint256"
        },
        {
          "internalType": "uint256",
          "name": "denominator",
          "type": "uint256"
        },
        {
          "internalType": "address",
          "name": "receiver",
          "type": "address"
        }
      ],
      "name": "setPenalty",
      "outputs": [],
      "stateMutability": "nonpayable",
      "type": "function"
    },
    {
      "inputs": [],
      "name": "emergencyUnstakeAll",
      "outputs": [],
      "stateMutability": "nonpayable",
      "type": "function"
    }
  ],
  "bytecode": "0x60806040526ec097ce7bc90715b34b9f100000000060095562093a80600c556032600d55612710600e5561dead600f60006101000a81548173ffffffffffffffffffffffffffffffffffffffff021916908373ffffffffffffffffffffffffffffffffffffffff1602179055503480156200007957600080fd5b5060405162002fa338038062002fa383398181016040528101906200009f919062000270565b33806000806101000a81548173ffffffffffffffffffffffffffffffffffffffff021916908373ffffffffffffffffffffffffffffffffffffffff16021790555060018060008060009054906101000a900473ffffffffffffffffffffffffffffffffffffffff1673ffffffffffffffffffffffffffffffffffffffff1673ffffffffffffffffffffffffffffffffffffffff16815260200190815260200160002060006101000a81548160ff021916908315150217905550506000600260006101000a81548160ff021916908315150217905550600160038190555081600460006101000a81548173ffffffffffffffffffffffffffffffffffffffff021916908373ffffffffffffffffffffffffffffffffffffffff16021790555080600560006101000a81548173ffffffffffffffffffffffffffffffffffffffff021916908373ffffffffffffffffffffffffffffffffffffffff1602179055505050620002b7565b600080fd5b600073ffffffffffffffffffffffffffffffffffffffff82169050919050565b600062000238826200020b565b9050919050565b6200024a816200022b565b81146200025657600080fd5b50565b6000815190506200026a816200023f565b92915050565b600080604083850312156200028a576200028962000206565b5b60006200029a8582860162000259565b9250506020620002ad8582860162000259565b9150509250929050565b612cdc80620002c76000396000f3fe608060405234801561001057600080fd5b50600436106102115760003560e01c80638456cb5911610125578063b76719b8116100ad578063e627f2db1161007c578063e627f2db14610573578063ee610e6c14610591578063f2fde38b146105af578063f7c618c1146105cb578063fe9fbb80146105e957610211565b8063b76719b8146104fd578063c95745e51461051b578063cbb47d4614610525578063dfeab4e41461055557610211565b8063a694fc3a116100f4578063a694fc3a14610459578063ad89429b14610475578063b187bd2614610493578063b1930382146104b1578063b6a5d7de146104e157610211565b80638456cb591461040b5780638dcb406114610415578063a21ca46a1461041f578063a2e5f9aa1461043d57610211565b80633f4ba83a116101a857806372f702f31161017757806372f702f31461036557806374a8f103146103835780637a7664601461039f578063817b1cd2146103cf57806382b2e257146103ed57610211565b80633f4ba83a146102ef5780635903b12e146102f95780635c975abb146103175780635efbf2b41461033557610211565b80632b1e4567116101e45780632b1e45671461028d5780632e17de78146102ab57806335322f37146102c75780633dc10ad4146102d157610211565b80630da730731461021657806316934fc414610234578063224b2a5b146102675780632a89eb2814610271575b600080fd5b61021e610619565b60405161022b91906123f2565b60405180910390f35b61024e60048036038101906102499190612470565b61061f565b60405161025e949392919061249d565b60405180910390f35b61026f61064f565b005b61028b6004803603810190610286919061250e565b61070e565b005b61029561078f565b6040516102a291906123f2565b60405180910390f35b6102c560048036038101906102c0919061250e565b610799565b005b6102cf610809565b005b6102d9610886565b6040516102e691906123f2565b60405180910390f35b6102f761088c565b005b61030161097b565b60405161030e91906123f2565b60405180910390f35b61031f610a05565b60405161032c9190612556565b60405180910390f35b61034f600480360381019061034a9190612470565b610a18565b60405161035c91906123f2565b60405180910390f35b61036d610a64565b60405161037a9190612580565b60405180910390f35b61039d60048036038101906103989190612470565b610a8a565b005b6103b960048036038101906103b49190612470565b610b2d565b6040516103c691906123f2565b60405180910390f35b6103d7610b79565b6040516103e491906123f2565b60405180910390f35b6103f5610b7f565b60405161040291906123f2565b60405180910390f35b610413610c36565b005b61041d610d25565b005b610427610ee1565b60405161043491906123f2565b60405180910390f35b6104576004803603810190610452919061259b565b610eeb565b005b610473600480360381019061046e919061250e565b610f8f565b005b61047d6110ab565b60405161048a91906123f2565b60405180910390f35b61049b6110b5565b6040516104a89190612556565b60405180910390f35b6104cb60048036038101906104c6919061250e565b6110cc565b6040516104d891906123f2565b60405180910390f35b6104fb60048036038101906104f69190612470565b6110fe565b005b6105056111a0565b60405161051291906123f2565b60405180910390f35b6105236111a6565b005b61053f600480360381019061053a9190612470565b6113b5565b60405161054c91906123f2565b60405180910390f35b61055d6114f4565b60405161056a91906123f2565b60405180910390f35b61057b6114fa565b60405161058891906123f2565b60405180910390f35b6105996115be565b6040516105a69190612580565b60405180910390f35b6105c960048036038101906105c49190612640565b6115e4565b005b6105d36116fd565b6040516105e09190612580565b60405180910390f35b61060360048036038101906105fe9190612470565b611723565b6040516106109190612556565b60405180910390f35b600e5481565b60086020528060005260406000206000915090508060000154908060010154908060020154908060030154905084565b60026003541415610695576040517f08c379a000000000000000000000000000000000000000000000000000000000815260040161068c906126ca565b60405180910390fd5b6002600381905550600015156106a96110b5565b151514806106bc57506106bb33611723565b5b6106fb576040517f08c379a00000000000000000000000000000000000000000000000000000000081526004016106f290612736565b60405180910390fd5b61070433611779565b6001600381905550565b61071733611723565b610756576040517f08c379a000000000000000000000000000000000000000000000000000000000815260040161074d906127c8565b60405180910390fd5b61077f60095461077183600a546119e890919063ffffffff16565b6119fe90919063ffffffff16565b600a819055508060098190555050565b6000600b54905090565b600260035414156107df576040517f08c379a00000000000000000000000000000000000000000000000000000000081526004016107d6906126ca565b60405180910390fd5b6002600381905550600081116107f457600080fd5b6107fe3382611a14565b600160038190555050565b6002600354141561084f576040517f08c379a0000000000000000000000000000000000000000000000000000000008152600401610846906126ca565b60405180910390fd5b6002600381905550600061086233610b2d565b90506000811161087157600080fd5b61087b3382611a14565b506001600381905550565b600d5481565b600115156108986110b5565b151514806108ab57506108aa33611723565b5b6108ea576040517f08c379a00000000000000000000000000000000000000000000000000000000081526004016108e190612834565b60405180910390fd5b6108f333611f65565b610932576040517f08c379a0000000000000000000000000000000000000000000000000000000008152600401610929906128c6565b60405180910390fd5b6000600260006101000a81548160ff0219169083151502179055507fa45f47fdea8a1efdd9029a5691c7f759c32b7c698632b563573e155625d1693360405160405180910390a1565b600080610986610b7f565b9050600b548111801561099c5750600060075414155b15610a015760006109b8600b5483611fbe90919063ffffffff16565b905060006109e56007546109d7600954856119e890919063ffffffff16565b6119fe90919063ffffffff16565b90506109fc81600a54611fd490919063ffffffff16565b935050505b5090565b600260009054906101000a900460ff1681565b6000600860008373ffffffffffffffffffffffffffffffffffffffff1673ffffffffffffffffffffffffffffffffffffffff168152602001908152602001600020600301549050919050565b600460009054906101000a900473ffffffffffffffffffffffffffffffffffffffff1681565b610a9333611f65565b610ad2576040517f08c379a0000000000000000000000000000000000000000000000000000000008152600401610ac9906128c6565b60405180910390fd5b6000600160008373ffffffffffffffffffffffffffffffffffffffff1673ffffffffffffffffffffffffffffffffffffffff16815260200190815260200160002060006101000a81548160ff02191690831515021790555050565b6000600860008373ffffffffffffffffffffffffffffffffffffffff1673ffffffffffffffffffffffffffffffffffffffff168152602001908152602001600020600101549050919050565b60075481565b6000610c31600754600560009054906101000a900473ffffffffffffffffffffffffffffffffffffffff1673ffffffffffffffffffffffffffffffffffffffff166370a08231306040518263ffffffff1660e01b8152600401610be29190612580565b602060405180830381865afa158015610bff573d6000803e3d6000fd5b505050506040513d601f19601f82011682018060405250810190610c2391906128fb565b611fbe90919063ffffffff16565b905090565b60001515610c426110b5565b15151480610c555750610c5433611723565b5b610c94576040517f08c379a0000000000000000000000000000000000000000000000000000000008152600401610c8b90612736565b60405180910390fd5b610c9d33611f65565b610cdc576040517f08c379a0000000000000000000000000000000000000000000000000000000008152600401610cd3906128c6565b60405180910390fd5b6001600260006101000a81548160ff0219169083151502179055507f9e87fac88ff661f02d44f95383c817fece4bce600a3dab7a54406878b965e75260405160405180910390a1565b60026003541415610d6b576040517f08c379a0000000000000000000000000000000000000000000000000000000008152600401610d62906126ca565b60405180910390fd5b60026003819055506000600460009054906101000a900473ffffffffffffffffffffffffffffffffffffffff1673ffffffffffffffffffffffffffffffffffffffff166370a08231336040518263ffffffff1660e01b8152600401610dd09190612580565b602060405180830381865afa158015610ded573d6000803e3d6000fd5b505050506040513d601f19601f82011682018060405250810190610e1191906128fb565b905060008111610e2057600080fd5b610e2933611779565b600460009054906101000a900473ffffffffffffffffffffffffffffffffffffffff1673ffffffffffffffffffffffffffffffffffffffff166323b872dd3330846040518463ffffffff1660e01b8152600401610e8893929190612928565b6020604051808303816000875af1158015610ea7573d6000803e3d6000fd5b505050506040513d601f19601f82011682018060405250810190610ecb919061298b565b50610ed63382611fea565b506001600381905550565b6000600954905090565b610ef433611723565b610f33576040517f08c379a0000000000000000000000000000000000000000000000000000000008152600401610f2a906127c8565b60405180910390fd5b83600c8190555082600d8190555081600e8190555080600f60006101000a81548173ffffffffffffffffffffffffffffffffffffffff021916908373ffffffffffffffffffffffffffffffffffffffff16021790555050505050565b60026003541415610fd5576040517f08c379a0000000000000000000000000000000000000000000000000000000008152600401610fcc906126ca565b60405180910390fd5b600260038190555060008111610fea57600080fd5b610ff333611779565b600460009054906101000a900473ffffffffffffffffffffffffffffffffffffffff1673ffffffffffffffffffffffffffffffffffffffff166323b872dd3330846040518463ffffffff1660e01b815260040161105293929190612928565b6020604051808303816000875af1158015611071573d6000803e3d6000fd5b505050506040513d601f19601f82011682018060405250810190611095919061298b565b506110a03382611fea565b600160038190555050565b6000600a54905090565b6000600260009054906101000a900460ff16905090565b60006110f76009546110e9600a54856119e890919063ffffffff16565b6119fe90919063ffffffff16565b9050919050565b61110733611723565b611146576040517f08c379a000000000000000000000000000000000000000000000000000000000815260040161113d906127c8565b60405180910390fd5b60018060008373ffffffffffffffffffffffffffffffffffffffff1673ffffffffffffffffffffffffffffffffffffffff16815260200190815260200160002060006101000a81548160ff02191690831515021790555050565b60065481565b6000600860003373ffffffffffffffffffffffffffffffffffffffff1673ffffffffffffffffffffffffffffffffffffffff168152602001908152602001600020600101541161122b576040517f08c379a000000000000000000000000000000000000000000000000000000000815260040161122290612a04565b60405180910390fd5b600460009054906101000a900473ffffffffffffffffffffffffffffffffffffffff1673ffffffffffffffffffffffffffffffffffffffff1663a9059cbb33600860003373ffffffffffffffffffffffffffffffffffffffff1673ffffffffffffffffffffffffffffffffffffffff168152602001908152602001600020600101546040518363ffffffff1660e01b81526004016112ca929190612a24565b6020604051808303816000875af11580156112e9573d6000803e3d6000fd5b505050506040513d601f19601f8201168201806040525081019061130d919061298b565b50611365600860003373ffffffffffffffffffffffffffffffffffffffff1673ffffffffffffffffffffffffffffffffffffffff16815260200190815260200160002060010154600754611fbe90919063ffffffff16565b6007819055506000600860003373ffffffffffffffffffffffffffffffffffffffff1673ffffffffffffffffffffffffffffffffffffffff16815260200190815260200160002060010181905550565b600080600860008473ffffffffffffffffffffffffffffffffffffffff1673ffffffffffffffffffffffffffffffffffffffff16815260200190815260200160002060010154141561140a57600090506114ef565b600061147c60095461146e61141d61097b565b600860008873ffffffffffffffffffffffffffffffffffffffff1673ffffffffffffffffffffffffffffffffffffffff168152602001908152602001600020600101546119e890919063ffffffff16565b6119fe90919063ffffffff16565b90506000600860008573ffffffffffffffffffffffffffffffffffffffff1673ffffffffffffffffffffffffffffffffffffffff1681526020019081526020016000206002015490508082116114d7576000925050506114ef565b6114ea8183611fbe90919063ffffffff16565b925050505b919050565b600c5481565b60006115ac600754600560009054906101000a900473ffffffffffffffffffffffffffffffffffffffff1673ffffffffffffffffffffffffffffffffffffffff166370a08231306040518263ffffffff1660e01b815260040161155d9190612580565b602060405180830381865afa15801561157a573d6000803e3d6000fd5b505050506040513d601f19601f8201168201806040525081019061159e91906128fb565b611fbe90919063ffffffff16565b6006546115b99190612a7c565b905090565b600f60009054906101000a900473ffffffffffffffffffffffffffffffffffffffff1681565b6115ed33611f65565b61162c576040517f08c379a0000000000000000000000000000000000000000000000000000000008152600401611623906128c6565b60405180910390fd5b806000806101000a81548173ffffffffffffffffffffffffffffffffffffffff021916908373ffffffffffffffffffffffffffffffffffffffff16021790555060018060008373ffffffffffffffffffffffffffffffffffffffff1673ffffffffffffffffffffffffffffffffffffffff16815260200190815260200160002060006101000a81548160ff0219169083151502179055507f04dba622d284ed0014ee4b9a6a68386be1a4c08a4913ae272de89199cc686163816040516116f29190612b31565b60405180910390a150565b600560009054906101000a900473ffffffffffffffffffffffffffffffffffffffff1681565b6000600160008373ffffffffffffffffffffffffffffffffffffffff1673ffffffffffffffffffffffffffffffffffffffff16815260200190815260200160002060009054906101000a900460ff169050919050565b611781612220565b600061178c826122bf565b9050600061179983610b2d565b14806117a55750600081145b156117b057506119e5565b61180581600860008573ffffffffffffffffffffffffffffffffffffffff1673ffffffffffffffffffffffffffffffffffffffff16815260200190815260200160002060030154611fd490919063ffffffff16565b600860008473ffffffffffffffffffffffffffffffffffffffff1673ffffffffffffffffffffffffffffffffffffffff168152602001908152602001600020600301819055506118a081600860008573ffffffffffffffffffffffffffffffffffffffff1673ffffffffffffffffffffffffffffffffffffffff16815260200190815260200160002060020154611fd490919063ffffffff16565b600860008473ffffffffffffffffffffffffffffffffffffffff1673ffffffffffffffffffffffffffffffffffffffff168152602001908152602001600020600201819055506118fb81600654611fd490919063ffffffff16565b600681905550600560009054906101000a900473ffffffffffffffffffffffffffffffffffffffff1673ffffffffffffffffffffffffffffffffffffffff1663a9059cbb83836040518363ffffffff1660e01b815260040161195e929190612a24565b6020604051808303816000875af115801561197d573d6000803e3d6000fd5b505050506040513d601f19601f820116820180604052508101906119a1919061298b565b506119aa612220565b7f300154aa48816d02c3329b51b40572d4971ee4dd8139aeecc0b2b0ea382d199282826040516119db929190612a24565b60405180910390a1505b50565b600081836119f69190612b4c565b905092915050565b60008183611a0c9190612bd5565b905092915050565b60001515611a206110b5565b15151480611a335750611a3233611723565b5b611a72576040517f08c379a0000000000000000000000000000000000000000000000000000000008152600401611a6990612736565b60405180910390fd5b80600860008473ffffffffffffffffffffffffffffffffffffffff1673ffffffffffffffffffffffffffffffffffffffff168152602001908152602001600020600101541015611af7576040517f08c379a0000000000000000000000000000000000000000000000000000000008152600401611aee90612c52565b60405180910390fd5b611b0082611779565b611b5581600860008573ffffffffffffffffffffffffffffffffffffffff1673ffffffffffffffffffffffffffffffffffffffff16815260200190815260200160002060010154611fbe90919063ffffffff16565b600860008473ffffffffffffffffffffffffffffffffffffffff1673ffffffffffffffffffffffffffffffffffffffff16815260200190815260200160002060010181905550611be6600860008473ffffffffffffffffffffffffffffffffffffffff1673ffffffffffffffffffffffffffffffffffffffff168152602001908152602001600020600101546110cc565b600860008473ffffffffffffffffffffffffffffffffffffffff1673ffffffffffffffffffffffffffffffffffffffff16815260200190815260200160002060020181905550611c4181600754611fbe90919063ffffffff16565b60078190555042600c54600860008573ffffffffffffffffffffffffffffffffffffffff1673ffffffffffffffffffffffffffffffffffffffff16815260200190815260200160002060000154611c989190612a7c565b1115611e86576000611cc9600e54611cbb600d54856119e890919063ffffffff16565b6119fe90919063ffffffff16565b90506000611ce08284611fbe90919063ffffffff16565b9050600460009054906101000a900473ffffffffffffffffffffffffffffffffffffffff1673ffffffffffffffffffffffffffffffffffffffff1663a9059cbb85836040518363ffffffff1660e01b8152600401611d3f929190612a24565b6020604051808303816000875af1158015611d5e573d6000803e3d6000fd5b505050506040513d601f19601f82011682018060405250810190611d82919061298b565b50600460009054906101000a900473ffffffffffffffffffffffffffffffffffffffff1673ffffffffffffffffffffffffffffffffffffffff1663a9059cbb600f60009054906101000a900473ffffffffffffffffffffffffffffffffffffffff16846040518363ffffffff1660e01b8152600401611e02929190612a24565b6020604051808303816000875af1158015611e21573d6000803e3d6000fd5b505050506040513d601f19601f82011682018060405250810190611e45919061298b565b507fb6a45448c8250adf8d836e047d46f96410d632c7089720e3aed88fcb76644ded8483604051611e77929190612a24565b60405180910390a15050611f28565b600460009054906101000a900473ffffffffffffffffffffffffffffffffffffffff1673ffffffffffffffffffffffffffffffffffffffff1663a9059cbb83836040518363ffffffff1660e01b8152600401611ee3929190612a24565b6020604051808303816000875af1158015611f02573d6000803e3d6000fd5b505050506040513d601f19601f82011682018060405250810190611f26919061298b565b505b7f0f5bb82176feb1b5e747e28471aa92156a04d9f3ab9f45f28e2d704232b93f758282604051611f59929190612a24565b60405180910390a15050565b60008060009054906101000a900473ffffffffffffffffffffffffffffffffffffffff1673ffffffffffffffffffffffffffffffffffffffff168273ffffffffffffffffffffffffffffffffffffffff16149050919050565b60008183611fcc9190612c72565b905092915050565b60008183611fe29190612a7c565b905092915050565b60001515611ff66110b5565b15151480612009575061200833611723565b5b612048576040517f08c379a000000000000000000000000000000000000000000000000000000000815260040161203f90612736565b60405180910390fd5b6000811161205557600080fd5b42600860008473ffffffffffffffffffffffffffffffffffffffff1673ffffffffffffffffffffffffffffffffffffffff168152602001908152602001600020600001819055506120f181600860008573ffffffffffffffffffffffffffffffffffffffff1673ffffffffffffffffffffffffffffffffffffffff16815260200190815260200160002060010154611fd490919063ffffffff16565b600860008473ffffffffffffffffffffffffffffffffffffffff1673ffffffffffffffffffffffffffffffffffffffff16815260200190815260200160002060010181905550612182600860008473ffffffffffffffffffffffffffffffffffffffff1673ffffffffffffffffffffffffffffffffffffffff168152602001908152602001600020600101546110cc565b600860008473ffffffffffffffffffffffffffffffffffffffff1673ffffffffffffffffffffffffffffffffffffffff168152602001908152602001600020600201819055506121dd81600754611fd490919063ffffffff16565b6007819055507f9e71bc8eea02a63969f509818f2dafb9254532904319f9dbda79b67bd34a5f3d8282604051612214929190612a24565b60405180910390a15050565b600061222a610b7f565b9050600b54811180156122405750600060075414155b156122a957600061225c600b5483611fbe90919063ffffffff16565b9050600061228960075461227b600954856119e890919063ffffffff16565b6119fe90919063ffffffff16565b90506122a081600a54611fd490919063ffffffff16565b600a8190555050505b600060075411156122bc5780600b819055505b50565b600080600860008473ffffffffffffffffffffffffffffffffffffffff1673ffffffffffffffffffffffffffffffffffffffff16815260200190815260200160002060010154141561231457600090506123d4565b6000612361600860008573ffffffffffffffffffffffffffffffffffffffff1673ffffffffffffffffffffffffffffffffffffffff168152602001908152602001600020600101546110cc565b90506000600860008573ffffffffffffffffffffffffffffffffffffffff1673ffffffffffffffffffffffffffffffffffffffff1681526020019081526020016000206002015490508082116123bc576000925050506123d4565b6123cf8183611fbe90919063ffffffff16565b925050505b919050565b6000819050919050565b6123ec816123d9565b82525050565b600060208201905061240760008301846123e3565b92915050565b600080fd5b600073ffffffffffffffffffffffffffffffffffffffff82169050919050565b600061243d82612412565b9050919050565b61244d81612432565b811461245857600080fd5b50565b60008135905061246a81612444565b92915050565b6000602082840312156124865761248561240d565b5b60006124948482850161245b565b91505092915050565b60006080820190506124b260008301876123e3565b6124bf60208301866123e3565b6124cc60408301856123e3565b6124d960608301846123e3565b95945050505050565b6124eb816123d9565b81146124f657600080fd5b50565b600081359050612508816124e2565b92915050565b6000602082840312156125245761252361240d565b5b6000612532848285016124f9565b91505092915050565b60008115159050919050565b6125508161253b565b82525050565b600060208201905061256b6000830184612547565b92915050565b61257a81612432565b82525050565b60006020820190506125956000830184612571565b92915050565b600080600080608085870312156125b5576125b461240d565b5b60006125c3878288016124f9565b94505060206125d4878288016124f9565b93505060406125e5878288016124f9565b92505060606125f68782880161245b565b91505092959194509250565b600061260d82612412565b9050919050565b61261d81612602565b811461262857600080fd5b50565b60008135905061263a81612614565b92915050565b6000602082840312156126565761265561240d565b5b60006126648482850161262b565b91505092915050565b600082825260208201905092915050565b7f5265656e7472616e637947756172643a207265656e7472616e742063616c6c00600082015250565b60006126b4601f8361266d565b91506126bf8261267e565b602082019050919050565b600060208201905081810360008301526126e3816126a7565b9050919050565b7f436f6e7472616374206973207061757365640000000000000000000000000000600082015250565b600061272060128361266d565b915061272b826126ea565b602082019050919050565b6000602082019050818103600083015261274f81612713565b9050919050565b7f4f6e6c7920617574686f72697a65642075736572732063616e2063616c6c207460008201527f6869732066756e6374696f6e0000000000000000000000000000000000000000602082015250565b60006127b2602c8361266d565b91506127bd82612756565b604082019050919050565b600060208201905081810360008301526127e1816127a5565b9050919050565b7f436f6e7472616374206973206163746976650000000000000000000000000000600082015250565b600061281e60128361266d565b9150612829826127e8565b602082019050919050565b6000602082019050818103600083015261284d81612811565b9050919050565b7f4f6e6c79206f776e65722063616e2063616c6c20746869732066756e6374696f60008201527f6e00000000000000000000000000000000000000000000000000000000000000602082015250565b60006128b060218361266d565b91506128bb82612854565b604082019050919050565b600060208201905081810360008301526128df816128a3565b9050919050565b6000815190506128f5816124e2565b92915050565b6000602082840312156129115761291061240d565b5b600061291f848285016128e6565b91505092915050565b600060608201905061293d6000830186612571565b61294a6020830185612571565b61295760408301846123e3565b949350505050565b6129688161253b565b811461297357600080fd5b50565b6000815190506129858161295f565b92915050565b6000602082840312156129a1576129a061240d565b5b60006129af84828501612976565b91505092915050565b7f4e6f205374616b65000000000000000000000000000000000000000000000000600082015250565b60006129ee60088361266d565b91506129f9826129b8565b602082019050919050565b60006020820190508181036000830152612a1d816129e1565b9050919050565b6000604082019050612a396000830185612571565b612a4660208301846123e3565b9392505050565b7f4e487b7100000000000000000000000000000000000000000000000000000000600052601160045260246000fd5b6000612a87826123d9565b9150612a92836123d9565b9250827fffffffffffffffffffffffffffffffffffffffffffffffffffffffffffffffff03821115612ac757612ac6612a4d565b5b828201905092915050565b6000819050919050565b6000612af7612af2612aed84612412565b612ad2565b612412565b9050919050565b6000612b0982612adc565b9050919050565b6000612b1b82612afe565b9050919050565b612b2b81612b10565b82525050565b6000602082019050612b466000830184612b22565b92915050565b6000612b57826123d9565b9150612b62836123d9565b9250817fffffffffffffffffffffffffffffffffffffffffffffffffffffffffffffffff0483118215151615612b9b57612b9a612a4d565b5b828202905092915050565b7f4e487b7100000000000000000000000000000000000000000000000000000000600052601260045260246000fd5b6000612be0826123d9565b9150612beb836123d9565b925082612bfb57612bfa612ba6565b5b828204905092915050565b7f496e73756666696369656e74205374616b650000000000000000000000000000600082015250565b6000612c3c60128361266d565b9150612c4782612c06565b602082019050919050565b60006020820190508181036000830152612c6b81612c2f565b9050919050565b6000612c7d826123d9565b9150612c88836123d9565b925082821015612c9b57612c9a612a4d565b5b82820390509291505056fea2646970667358221220e4183c5e8f1e5e9a351c63153dc93f959c2b7493fa3303c3325a386953e945f264736f6c634300080a0033",
  "immutableReferences": {},
  "source": "// SPDX-License-Identifier: MIT\n\npragma solidity ^0.8;\n\nimport \"./libraries/SafeMath.sol\";\nimport \"./libraries/ReentrancyGuard.sol\";\nimport \"./interfaces/IRFTStake.sol\";\nimport \"./lib/BEP20.sol\";\nimport \"./lib/Auth.sol\";\nimport \"./lib/Pausable.sol\";\n\ncontract RFTStake is IRFTStake, Auth, Pausable, ReentrancyGuard{\n    using SafeMath for uint;\n\n    struct Stake {\n        uint256 lastStaked;\n        uint256 amount;\n        uint256 totalExcluded;\n        uint256 totalRealised;\n    }\n    \n    address public override stakingToken;\n    address public override rewardToken;\n\n    uint256 public override totalRealised;\n    uint256 public override totalStaked;\n\n    mapping (address => Stake) public stakes;\n\n    uint256 _accuracyFactor = 10 ** 36;\n    uint256 _rewardsPerLP;\n    uint256 _lastContractBalance;\n    \n    uint256 public penaltyTime = 7 days;\n    uint256 public penaltyFee = 50; // 0.50%\n    uint256 public penaltyFeeDenominator = 10000;\n    address public penaltyFeeReceiver = 0x000000000000000000000000000000000000dEaD;\n\n    constructor(address _stakingToken, address _rewardToken) Auth(msg.sender) {\n        stakingToken = _stakingToken;\n        rewardToken = _rewardToken;\n    }\n\n    /**\n     * Total rewards realised and to be realised\n     */\n    function getTotalRewards() external override view returns (uint256) {\n        return totalRealised + IBEP20(rewardToken).balanceOf(address(this)).sub(totalStaked);\n    }\n\n    /**\n     * Total rewards per LP cumulatively, inflated by _accuracyFactor\n     */\n    function getCumulativeRewardsPerLP() external override view returns (uint256) {\n        return _rewardsPerLP;\n    }\n\n    /**\n     * The last balance the contract had\n     */\n    function getLastContractBalance() external override view returns (uint256) {\n        return _lastContractBalance;\n    }\n\n    /**\n     * Total amount of transaction fees sent or to be sent to stakers\n     */\n    function getAccuracyFactor() external override view returns (uint256) {\n        return _accuracyFactor;\n    }\n\n    /**\n     * Returns amount of LP that address has staked\n     */\n    function getStake(address account) public override view returns (uint256) {\n        return stakes[account].amount;\n    }\n\n    /**\n     * Returns total earnings (realised + unrealised)\n     */\n    function getRealisedEarnings(address staker) external view override returns (uint256) {\n        return stakes[staker].totalRealised; // realised gains plus outstanding earnings\n    }\n\n    /**\n     * Returns unrealised earnings\n     */\n    function getUnrealisedEarnings(address staker) external view override returns (uint256) {\n        if(stakes[staker].amount == 0){ return 0; }\n\n        uint256 stakerTotalRewards = stakes[staker].amount.mul(getCurrentRewardsPerLP()).div(_accuracyFactor);\n        uint256 stakerTotalExcluded = stakes[staker].totalExcluded;\n\n        if(stakerTotalRewards <= stakerTotalExcluded){ return 0; }\n\n        return stakerTotalRewards.sub(stakerTotalExcluded);\n    }\n\n    function getCumulativeRewards(uint256 amount) public view returns (uint256) {\n        return amount.mul(_rewardsPerLP).div(_accuracyFactor);\n    }\n\n    function stake(uint amount) nonReentrant external override {\n        require(amount > 0);\n\n        _realise(msg.sender);\n\n        IBEP20(stakingToken).transferFrom(msg.sender, address(this), amount);\n\n        _stake(msg.sender, amount);\n    }\n\n    function stakeAll() nonReentrant external override {\n        uint256 amount = IBEP20(stakingToken).balanceOf(msg.sender);\n        require(amount > 0);\n\n        _realise(msg.sender);\n\n        IBEP20(stakingToken).transferFrom(msg.sender, address(this), amount);\n\n        _stake(msg.sender, amount);\n    }\n\n    function unstake(uint amount) nonReentrant external override {\n        require(amount > 0);\n\n        _unstake(msg.sender, amount);\n    }\n\n    function unstakeAll() nonReentrant external override {\n        uint256 amount = getStake(msg.sender);\n        require(amount > 0);\n\n        _unstake(msg.sender, amount);\n    }\n\n    function realise() nonReentrant external override notPaused {\n        _realise(msg.sender);\n    }\n\n    function _realise(address staker) internal {\n        _updateRewards();\n\n        uint amount = earnt(staker);\n\n        if (getStake(staker) == 0 || amount == 0) {\n            return;\n        }\n\n        stakes[staker].totalRealised = stakes[staker].totalRealised.add(amount);\n        stakes[staker].totalExcluded = stakes[staker].totalExcluded.add(amount);\n        totalRealised = totalRealised.add(amount);\n\n        IBEP20(rewardToken).transfer(staker, amount);\n\n        _updateRewards();\n\n        emit Realised(staker, amount);\n    }\n    \n    function earnt(address staker) internal view returns (uint256) {\n        if(stakes[staker].amount == 0){ return 0; }\n\n        uint256 stakerTotalRewards = getCumulativeRewards(stakes[staker].amount);\n        uint256 stakerTotalExcluded = stakes[staker].totalExcluded;\n\n        if(stakerTotalRewards <= stakerTotalExcluded){ return 0; }\n\n        return stakerTotalRewards.sub(stakerTotalExcluded);\n    }\n\n    function _stake(address staker, uint256 amount) internal notPaused {\n        require(amount > 0);\n\n        // add to current address' stake\n        stakes[staker].lastStaked = block.timestamp;\n        stakes[staker].amount = stakes[staker].amount.add(amount);\n        stakes[staker].totalExcluded = getCumulativeRewards(stakes[staker].amount);\n        totalStaked = totalStaked.add(amount);\n\n        emit Staked(staker, amount);\n    }\n\n    function _unstake(address staker, uint256 amount) internal notPaused {\n        require(stakes[staker].amount >= amount, \"Insufficient Stake\");\n\n        _realise(staker); // realise staking gains\n\n        // remove stake\n        stakes[staker].amount = stakes[staker].amount.sub(amount);\n        stakes[staker].totalExcluded = getCumulativeRewards(stakes[staker].amount);\n        totalStaked = totalStaked.sub(amount);\n\n        if(stakes[staker].lastStaked + penaltyTime > block.timestamp){\n            uint256 penalty = amount.mul(penaltyFee).div(penaltyFeeDenominator);\n            uint256 remaining = amount.sub(penalty);\n            \n            IBEP20(stakingToken).transfer(staker, remaining);\n            IBEP20(stakingToken).transfer(penaltyFeeReceiver, penalty);\n            \n            emit EarlyWithdrawalPenalty(staker, penalty);\n        }else{\n            IBEP20(stakingToken).transfer(staker, amount);\n        }\n\n        emit Unstaked(staker, amount);\n    }\n\n    function _updateRewards() internal  {\n        uint tokenBalance = getTokenBalance();\n\n        if(tokenBalance > _lastContractBalance && totalStaked != 0) {\n            uint256 newRewards = tokenBalance.sub(_lastContractBalance);\n            uint256 additionalAmountPerLP = newRewards.mul(_accuracyFactor).div(totalStaked);\n            _rewardsPerLP = _rewardsPerLP.add(additionalAmountPerLP);\n        }\n\n        if(totalStaked > 0){ _lastContractBalance = tokenBalance; }\n    }\n\n    function getCurrentRewardsPerLP() public view returns (uint256 currentRewardsPerLP) {\n        uint tokenBalance = getTokenBalance();\n\n        if(tokenBalance > _lastContractBalance && totalStaked != 0){\n            uint256 newRewards = tokenBalance.sub(_lastContractBalance);\n            uint256 additionalAmountPerLP = newRewards.mul(_accuracyFactor).div(totalStaked);\n            currentRewardsPerLP = _rewardsPerLP.add(additionalAmountPerLP);\n        }\n    }\n\n    function getTokenBalance() public view returns (uint256 tokenBalance) {\n        return IBEP20(rewardToken).balanceOf(address(this)).sub(totalStaked);\n    }\n\n    function setAccuracyFactor(uint256 newFactor) external authorized {\n        _rewardsPerLP = _rewardsPerLP.mul(newFactor).div(_accuracyFactor); // switch _rewardsPerLP to be inflated by the new factor instead\n        _accuracyFactor = newFactor;\n    }\n    \n    function setPenalty(uint256 time, uint256 fee, uint256 denominator, address receiver) external authorized {\n        penaltyTime = time;\n        penaltyFee = fee;\n        penaltyFeeDenominator = denominator;\n        penaltyFeeReceiver = receiver;\n    }\n\n    function emergencyUnstakeAll() external {\n        require(stakes[msg.sender].amount > 0, \"No Stake\");\n\n        IBEP20(stakingToken).transfer(msg.sender, stakes[msg.sender].amount);\n        totalStaked = totalStaked.sub(stakes[msg.sender].amount);\n        stakes[msg.sender].amount = 0;\n    }\n\n}",
  "sourcePath": "/Users/nolannbiron/Documents/PROJETS/cryptoBots/StakingApp/Staking/contracts/RFTStake.sol",
  "compiler": {
    "name": "solc",
    "version": "0.8.10+commit.fc410830.Emscripten.clang"
  },
  "schemaVersion": "3.4.4",
  "updatedAt": "2022-01-24T23:54:57.673Z",
  "networkType": "ethereum",
  "devdoc": {
    "kind": "dev",
    "methods": {},
    "version": 1
  },
  "userdoc": {
    "kind": "user",
    "methods": {
      "getAccuracyFactor()": {
        "notice": "Total amount of transaction fees sent or to be sent to stakers"
      },
      "getCumulativeRewardsPerLP()": {
        "notice": "Total rewards per LP cumulatively, inflated by _accuracyFactor"
      },
      "getLastContractBalance()": {
        "notice": "The last balance the contract had"
      },
      "getRealisedEarnings(address)": {
        "notice": "Returns total earnings (realised + unrealised)"
      },
      "getStake(address)": {
        "notice": "Returns amount of LP that address has staked"
      },
      "getTotalRewards()": {
        "notice": "Total rewards realised and to be realised"
      },
      "getUnrealisedEarnings(address)": {
        "notice": "Returns unrealised earnings"
      }
    },
    "version": 1
  }
}